{
	"Tax.sol": {
		"taxCompliance": {
			"abi": [
				{
					"inputs": [],
					"stateMutability": "nonpayable",
					"type": "constructor"
				},
				{
					"anonymous": false,
					"inputs": [
						{
							"indexed": true,
							"internalType": "address",
							"name": "user",
							"type": "address"
						},
						{
							"indexed": false,
							"internalType": "uint256",
							"name": "taxAmount",
							"type": "uint256"
						}
					],
					"name": "taxFiled",
					"type": "event"
				},
				{
					"inputs": [
						{
							"internalType": "address",
							"name": "user",
							"type": "address"
						}
					],
					"name": "audit_User",
					"outputs": [
						{
							"internalType": "uint256",
							"name": "",
							"type": "uint256"
						},
						{
							"internalType": "uint256",
							"name": "",
							"type": "uint256"
						}
					],
					"stateMutability": "view",
					"type": "function"
				},
				{
					"inputs": [
						{
							"internalType": "address",
							"name": "user",
							"type": "address"
						},
						{
							"internalType": "uint256",
							"name": "rate",
							"type": "uint256"
						}
					],
					"name": "calcTax",
					"outputs": [
						{
							"internalType": "uint256",
							"name": "",
							"type": "uint256"
						}
					],
					"stateMutability": "view",
					"type": "function"
				},
				{
					"inputs": [],
					"name": "government",
					"outputs": [
						{
							"internalType": "address",
							"name": "",
							"type": "address"
						}
					],
					"stateMutability": "view",
					"type": "function"
				},
				{
					"inputs": [
						{
							"internalType": "address",
							"name": "",
							"type": "address"
						}
					],
					"name": "income",
					"outputs": [
						{
							"internalType": "uint256",
							"name": "",
							"type": "uint256"
						}
					],
					"stateMutability": "view",
					"type": "function"
				},
				{
					"inputs": [
						{
							"internalType": "uint256",
							"name": "rate",
							"type": "uint256"
						}
					],
					"name": "payTax",
					"outputs": [],
					"stateMutability": "payable",
					"type": "function"
				},
				{
					"inputs": [
						{
							"internalType": "uint256",
							"name": "amount",
							"type": "uint256"
						}
					],
					"name": "reportIncome",
					"outputs": [],
					"stateMutability": "nonpayable",
					"type": "function"
				},
				{
					"inputs": [
						{
							"internalType": "address",
							"name": "",
							"type": "address"
						}
					],
					"name": "taxPaid",
					"outputs": [
						{
							"internalType": "uint256",
							"name": "",
							"type": "uint256"
						}
					],
					"stateMutability": "view",
					"type": "function"
				}
			],
			"devdoc": {
				"kind": "dev",
				"methods": {},
				"version": 1
			},
			"evm": {
				"assembly": "    /* \"Tax.sol\":61:2198  contract taxCompliance {... */\n  mstore(0x40, 0x80)\n    /* \"Tax.sol\":573:629  constructor() {... */\n  callvalue\n  dup1\n  iszero\n  tag_1\n  jumpi\n  0x00\n  dup1\n  revert\ntag_1:\n  pop\n    /* \"Tax.sol\":611:621  msg.sender */\n  caller\n    /* \"Tax.sol\":598:608  government */\n  0x00\n  dup1\n    /* \"Tax.sol\":598:621  government = msg.sender */\n  0x0100\n  exp\n  dup2\n  sload\n  dup2\n  0xffffffffffffffffffffffffffffffffffffffff\n  mul\n  not\n  and\n  swap1\n  dup4\n  0xffffffffffffffffffffffffffffffffffffffff\n  and\n  mul\n  or\n  swap1\n  sstore\n  pop\n    /* \"Tax.sol\":61:2198  contract taxCompliance {... */\n  dataSize(sub_0)\n  dup1\n  dataOffset(sub_0)\n  0x00\n  codecopy\n  0x00\n  return\nstop\n\nsub_0: assembly {\n        /* \"Tax.sol\":61:2198  contract taxCompliance {... */\n      mstore(0x40, 0x80)\n      jumpi(tag_1, lt(calldatasize, 0x04))\n      shr(0xe0, calldataload(0x00))\n      dup1\n      0xa05aaf50\n      gt\n      tag_9\n      jumpi\n      dup1\n      0xa05aaf50\n      eq\n      tag_5\n      jumpi\n      dup1\n      0xa28346cb\n      eq\n      tag_6\n      jumpi\n      dup1\n      0xa988e371\n      eq\n      tag_7\n      jumpi\n      dup1\n      0xb0e45c04\n      eq\n      tag_8\n      jumpi\n      jump(tag_1)\n    tag_9:\n      dup1\n      0x16fd5362\n      eq\n      tag_2\n      jumpi\n      dup1\n      0x2672f526\n      eq\n      tag_3\n      jumpi\n      dup1\n      0x8ea1eacc\n      eq\n      tag_4\n      jumpi\n    tag_1:\n      0x00\n      dup1\n      revert\n        /* \"Tax.sol\":637:729  function reportIncome(uint256 amount) public {... */\n    tag_2:\n      callvalue\n      dup1\n      iszero\n      tag_10\n      jumpi\n      0x00\n      dup1\n      revert\n    tag_10:\n      pop\n      tag_11\n      0x04\n      dup1\n      calldatasize\n      sub\n      dup2\n      add\n      swap1\n      tag_12\n      swap2\n      swap1\n      tag_13\n      jump\t// in\n    tag_12:\n      tag_14\n      jump\t// in\n    tag_11:\n      stop\n        /* \"Tax.sol\":97:122  address public government */\n    tag_3:\n      callvalue\n      dup1\n      iszero\n      tag_15\n      jumpi\n      0x00\n      dup1\n      revert\n    tag_15:\n      pop\n      tag_16\n      tag_17\n      jump\t// in\n    tag_16:\n      mload(0x40)\n      tag_18\n      swap2\n      swap1\n      tag_19\n      jump\t// in\n    tag_18:\n      mload(0x40)\n      dup1\n      swap2\n      sub\n      swap1\n      return\n        /* \"Tax.sol\":129:170  mapping(address => uint256) public income */\n    tag_4:\n      callvalue\n      dup1\n      iszero\n      tag_20\n      jumpi\n      0x00\n      dup1\n      revert\n    tag_20:\n      pop\n      tag_21\n      0x04\n      dup1\n      calldatasize\n      sub\n      dup2\n      add\n      swap1\n      tag_22\n      swap2\n      swap1\n      tag_23\n      jump\t// in\n    tag_22:\n      tag_24\n      jump\t// in\n    tag_21:\n      mload(0x40)\n      tag_25\n      swap2\n      swap1\n      tag_26\n      jump\t// in\n    tag_25:\n      mload(0x40)\n      dup1\n      swap2\n      sub\n      swap1\n      return\n        /* \"Tax.sol\":1734:2044  function payTax(uint256 rate) public payable {... */\n    tag_5:\n      tag_27\n      0x04\n      dup1\n      calldatasize\n      sub\n      dup2\n      add\n      swap1\n      tag_28\n      swap2\n      swap1\n      tag_13\n      jump\t// in\n    tag_28:\n      tag_29\n      jump\t// in\n    tag_27:\n      stop\n        /* \"Tax.sol\":737:1726  function calcTax(address user, uint256 rate) public view returns (uint256) {... */\n    tag_6:\n      callvalue\n      dup1\n      iszero\n      tag_30\n      jumpi\n      0x00\n      dup1\n      revert\n    tag_30:\n      pop\n      tag_31\n      0x04\n      dup1\n      calldatasize\n      sub\n      dup2\n      add\n      swap1\n      tag_32\n      swap2\n      swap1\n      tag_33\n      jump\t// in\n    tag_32:\n      tag_34\n      jump\t// in\n    tag_31:\n      mload(0x40)\n      tag_35\n      swap2\n      swap1\n      tag_26\n      jump\t// in\n    tag_35:\n      mload(0x40)\n      dup1\n      swap2\n      sub\n      swap1\n      return\n        /* \"Tax.sol\":249:291  mapping(address => uint256) public taxPaid */\n    tag_7:\n      callvalue\n      dup1\n      iszero\n      tag_36\n      jumpi\n      0x00\n      dup1\n      revert\n    tag_36:\n      pop\n      tag_37\n      0x04\n      dup1\n      calldatasize\n      sub\n      dup2\n      add\n      swap1\n      tag_38\n      swap2\n      swap1\n      tag_23\n      jump\t// in\n    tag_38:\n      tag_39\n      jump\t// in\n    tag_37:\n      mload(0x40)\n      tag_40\n      swap2\n      swap1\n      tag_26\n      jump\t// in\n    tag_40:\n      mload(0x40)\n      dup1\n      swap2\n      sub\n      swap1\n      return\n        /* \"Tax.sol\":2052:2195  function audit_User(address user) public view onlyGovernment returns (uint256, uint256) {... */\n    tag_8:\n      callvalue\n      dup1\n      iszero\n      tag_41\n      jumpi\n      0x00\n      dup1\n      revert\n    tag_41:\n      pop\n      tag_42\n      0x04\n      dup1\n      calldatasize\n      sub\n      dup2\n      add\n      swap1\n      tag_43\n      swap2\n      swap1\n      tag_23\n      jump\t// in\n    tag_43:\n      tag_44\n      jump\t// in\n    tag_42:\n      mload(0x40)\n      tag_45\n      swap3\n      swap2\n      swap1\n      tag_46\n      jump\t// in\n    tag_45:\n      mload(0x40)\n      dup1\n      swap2\n      sub\n      swap1\n      return\n        /* \"Tax.sol\":637:729  function reportIncome(uint256 amount) public {... */\n    tag_14:\n        /* \"Tax.sol\":715:721  amount */\n      dup1\n        /* \"Tax.sol\":693:699  income */\n      0x01\n        /* \"Tax.sol\":693:711  income[msg.sender] */\n      0x00\n        /* \"Tax.sol\":700:710  msg.sender */\n      caller\n        /* \"Tax.sol\":693:711  income[msg.sender] */\n      0xffffffffffffffffffffffffffffffffffffffff\n      and\n      0xffffffffffffffffffffffffffffffffffffffff\n      and\n      dup2\n      mstore\n      0x20\n      add\n      swap1\n      dup2\n      mstore\n      0x20\n      add\n      0x00\n      keccak256\n      0x00\n        /* \"Tax.sol\":693:721  income[msg.sender] += amount */\n      dup3\n      dup3\n      sload\n      tag_48\n      swap2\n      swap1\n      tag_49\n      jump\t// in\n    tag_48:\n      swap3\n      pop\n      pop\n      dup2\n      swap1\n      sstore\n      pop\n        /* \"Tax.sol\":637:729  function reportIncome(uint256 amount) public {... */\n      pop\n      jump\t// out\n        /* \"Tax.sol\":97:122  address public government */\n    tag_17:\n      0x00\n      dup1\n      sload\n      swap1\n      0x0100\n      exp\n      swap1\n      div\n      0xffffffffffffffffffffffffffffffffffffffff\n      and\n      dup2\n      jump\t// out\n        /* \"Tax.sol\":129:170  mapping(address => uint256) public income */\n    tag_24:\n      mstore(0x20, 0x01)\n      dup1\n      0x00\n      mstore\n      keccak256(0x00, 0x40)\n      0x00\n      swap2\n      pop\n      swap1\n      pop\n      sload\n      dup2\n      jump\t// out\n        /* \"Tax.sol\":1734:2044  function payTax(uint256 rate) public payable {... */\n    tag_29:\n        /* \"Tax.sol\":1790:1807  uint256 taxAmount */\n      0x00\n        /* \"Tax.sol\":1810:1835  calcTax(msg.sender, rate) */\n      tag_51\n        /* \"Tax.sol\":1818:1828  msg.sender */\n      caller\n        /* \"Tax.sol\":1830:1834  rate */\n      dup4\n        /* \"Tax.sol\":1810:1817  calcTax */\n      tag_34\n        /* \"Tax.sol\":1810:1835  calcTax(msg.sender, rate) */\n      jump\t// in\n    tag_51:\n        /* \"Tax.sol\":1790:1835  uint256 taxAmount = calcTax(msg.sender, rate) */\n      swap1\n      pop\n        /* \"Tax.sol\":1867:1876  taxAmount */\n      dup1\n        /* \"Tax.sol\":1854:1863  msg.value */\n      callvalue\n        /* \"Tax.sol\":1854:1876  msg.value <= taxAmount */\n      gt\n      iszero\n        /* \"Tax.sol\":1846:1905  require(msg.value <= taxAmount, \"Insufficient tax payment\") */\n      tag_52\n      jumpi\n      mload(0x40)\n      0x08c379a000000000000000000000000000000000000000000000000000000000\n      dup2\n      mstore\n      0x04\n      add\n      tag_53\n      swap1\n      tag_54\n      jump\t// in\n    tag_53:\n      mload(0x40)\n      dup1\n      swap2\n      sub\n      swap1\n      revert\n    tag_52:\n        /* \"Tax.sol\":1939:1948  taxAmount */\n      dup1\n        /* \"Tax.sol\":1916:1923  taxPaid */\n      0x02\n        /* \"Tax.sol\":1916:1935  taxPaid[msg.sender] */\n      0x00\n        /* \"Tax.sol\":1924:1934  msg.sender */\n      caller\n        /* \"Tax.sol\":1916:1935  taxPaid[msg.sender] */\n      0xffffffffffffffffffffffffffffffffffffffff\n      and\n      0xffffffffffffffffffffffffffffffffffffffff\n      and\n      dup2\n      mstore\n      0x20\n      add\n      swap1\n      dup2\n      mstore\n      0x20\n      add\n      0x00\n      keccak256\n      0x00\n        /* \"Tax.sol\":1916:1948  taxPaid[msg.sender] += taxAmount */\n      dup3\n      dup3\n      sload\n      tag_55\n      swap2\n      swap1\n      tag_49\n      jump\t// in\n    tag_55:\n      swap3\n      pop\n      pop\n      dup2\n      swap1\n      sstore\n      pop\n        /* \"Tax.sol\":1973:1983  msg.sender */\n      caller\n        /* \"Tax.sol\":1964:1995  taxFiled(msg.sender, taxAmount) */\n      0xffffffffffffffffffffffffffffffffffffffff\n      and\n      0x169b77a6399e6ec4a002ba8a07a8eaaf6944dacdbcb51ccb0655f4f7deb7760a\n        /* \"Tax.sol\":1985:1994  taxAmount */\n      dup3\n        /* \"Tax.sol\":1964:1995  taxFiled(msg.sender, taxAmount) */\n      mload(0x40)\n      tag_56\n      swap2\n      swap1\n      tag_26\n      jump\t// in\n    tag_56:\n      mload(0x40)\n      dup1\n      swap2\n      sub\n      swap1\n      log2\n        /* \"Tax.sol\":1779:2044  {... */\n      pop\n        /* \"Tax.sol\":1734:2044  function payTax(uint256 rate) public payable {... */\n      pop\n      jump\t// out\n        /* \"Tax.sol\":737:1726  function calcTax(address user, uint256 rate) public view returns (uint256) {... */\n    tag_34:\n        /* \"Tax.sol\":803:810  uint256 */\n      0x00\n        /* \"Tax.sol\":896:902  250000 */\n      0x03d090\n        /* \"Tax.sol\":880:886  income */\n      0x01\n        /* \"Tax.sol\":880:892  income[user] */\n      0x00\n        /* \"Tax.sol\":887:891  user */\n      dup6\n        /* \"Tax.sol\":880:892  income[user] */\n      0xffffffffffffffffffffffffffffffffffffffff\n      and\n      0xffffffffffffffffffffffffffffffffffffffff\n      and\n      dup2\n      mstore\n      0x20\n      add\n      swap1\n      dup2\n      mstore\n      0x20\n      add\n      0x00\n      keccak256\n      sload\n        /* \"Tax.sol\":880:902  income[user] <= 250000 */\n      gt\n        /* \"Tax.sol\":876:1610  if (income[user] <= 250000){ ... */\n      tag_58\n      jumpi\n        /* \"Tax.sol\":927:933  income */\n      0x01\n        /* \"Tax.sol\":927:939  income[user] */\n      0x00\n        /* \"Tax.sol\":934:938  user */\n      dup5\n        /* \"Tax.sol\":927:939  income[user] */\n      0xffffffffffffffffffffffffffffffffffffffff\n      and\n      0xffffffffffffffffffffffffffffffffffffffff\n      and\n      dup2\n      mstore\n      0x20\n      add\n      swap1\n      dup2\n      mstore\n      0x20\n      add\n      0x00\n      keccak256\n      sload\n        /* \"Tax.sol\":919:940  return (income[user]) */\n      swap1\n      pop\n      jump(tag_57)\n        /* \"Tax.sol\":876:1610  if (income[user] <= 250000){ ... */\n    tag_58:\n        /* \"Tax.sol\":975:981  250000 */\n      0x03d090\n        /* \"Tax.sol\":960:966  income */\n      0x01\n        /* \"Tax.sol\":960:972  income[user] */\n      0x00\n        /* \"Tax.sol\":967:971  user */\n      dup6\n        /* \"Tax.sol\":960:972  income[user] */\n      0xffffffffffffffffffffffffffffffffffffffff\n      and\n      0xffffffffffffffffffffffffffffffffffffffff\n      and\n      dup2\n      mstore\n      0x20\n      add\n      swap1\n      dup2\n      mstore\n      0x20\n      add\n      0x00\n      keccak256\n      sload\n        /* \"Tax.sol\":960:981  income[user] > 250000 */\n      gt\n        /* \"Tax.sol\":960:1007  income[user] > 250000 && income[user] <= 400000 */\n      dup1\n      iszero\n      tag_60\n      jumpi\n      pop\n        /* \"Tax.sol\":1001:1007  400000 */\n      0x061a80\n        /* \"Tax.sol\":985:991  income */\n      0x01\n        /* \"Tax.sol\":985:997  income[user] */\n      0x00\n        /* \"Tax.sol\":992:996  user */\n      dup6\n        /* \"Tax.sol\":985:997  income[user] */\n      0xffffffffffffffffffffffffffffffffffffffff\n      and\n      0xffffffffffffffffffffffffffffffffffffffff\n      and\n      dup2\n      mstore\n      0x20\n      add\n      swap1\n      dup2\n      mstore\n      0x20\n      add\n      0x00\n      keccak256\n      sload\n        /* \"Tax.sol\":985:1007  income[user] <= 400000 */\n      gt\n      iszero\n        /* \"Tax.sol\":960:1007  income[user] > 250000 && income[user] <= 400000 */\n    tag_60:\n        /* \"Tax.sol\":957:1610  if(income[user] > 250000 && income[user] <= 400000){... */\n      iszero\n      tag_61\n      jumpi\n        /* \"Tax.sol\":1063:1066  100 */\n      0x64\n        /* \"Tax.sol\":1057:1059  15 */\n      0x0f\n        /* \"Tax.sol\":1047:1053  250000 */\n      0x03d090\n        /* \"Tax.sol\":1032:1038  income */\n      0x01\n        /* \"Tax.sol\":1032:1044  income[user] */\n      0x00\n        /* \"Tax.sol\":1039:1043  user */\n      dup8\n        /* \"Tax.sol\":1032:1044  income[user] */\n      0xffffffffffffffffffffffffffffffffffffffff\n      and\n      0xffffffffffffffffffffffffffffffffffffffff\n      and\n      dup2\n      mstore\n      0x20\n      add\n      swap1\n      dup2\n      mstore\n      0x20\n      add\n      0x00\n      keccak256\n      sload\n        /* \"Tax.sol\":1032:1053  income[user] - 250000 */\n      tag_62\n      swap2\n      swap1\n      tag_63\n      jump\t// in\n    tag_62:\n        /* \"Tax.sol\":1031:1059  (income[user] - 250000) * 15 */\n      tag_64\n      swap2\n      swap1\n      tag_65\n      jump\t// in\n    tag_64:\n        /* \"Tax.sol\":1030:1066  ((income[user] - 250000) * 15) / 100 */\n      tag_66\n      swap2\n      swap1\n      tag_67\n      jump\t// in\n    tag_66:\n        /* \"Tax.sol\":1023:1066  return ((income[user] - 250000) * 15) / 100 */\n      swap1\n      pop\n      jump(tag_57)\n        /* \"Tax.sol\":957:1610  if(income[user] > 250000 && income[user] <= 400000){... */\n    tag_61:\n        /* \"Tax.sol\":1101:1107  400000 */\n      0x061a80\n        /* \"Tax.sol\":1086:1092  income */\n      0x01\n        /* \"Tax.sol\":1086:1098  income[user] */\n      0x00\n        /* \"Tax.sol\":1093:1097  user */\n      dup6\n        /* \"Tax.sol\":1086:1098  income[user] */\n      0xffffffffffffffffffffffffffffffffffffffff\n      and\n      0xffffffffffffffffffffffffffffffffffffffff\n      and\n      dup2\n      mstore\n      0x20\n      add\n      swap1\n      dup2\n      mstore\n      0x20\n      add\n      0x00\n      keccak256\n      sload\n        /* \"Tax.sol\":1086:1107  income[user] > 400000 */\n      gt\n        /* \"Tax.sol\":1086:1133  income[user] > 400000 && income[user] <= 800000 */\n      dup1\n      iszero\n      tag_69\n      jumpi\n      pop\n        /* \"Tax.sol\":1127:1133  800000 */\n      0x0c3500\n        /* \"Tax.sol\":1111:1117  income */\n      0x01\n        /* \"Tax.sol\":1111:1123  income[user] */\n      0x00\n        /* \"Tax.sol\":1118:1122  user */\n      dup6\n        /* \"Tax.sol\":1111:1123  income[user] */\n      0xffffffffffffffffffffffffffffffffffffffff\n      and\n      0xffffffffffffffffffffffffffffffffffffffff\n      and\n      dup2\n      mstore\n      0x20\n      add\n      swap1\n      dup2\n      mstore\n      0x20\n      add\n      0x00\n      keccak256\n      sload\n        /* \"Tax.sol\":1111:1133  income[user] <= 800000 */\n      gt\n      iszero\n        /* \"Tax.sol\":1086:1133  income[user] > 400000 && income[user] <= 800000 */\n    tag_69:\n        /* \"Tax.sol\":1083:1610  if(income[user] > 400000 && income[user] <= 800000){... */\n      iszero\n      tag_70\n      jumpi\n        /* \"Tax.sol\":1195:1200  22500 */\n      0x57e4\n        /* \"Tax.sol\":1189:1192  100 */\n      0x64\n        /* \"Tax.sol\":1183:1185  20 */\n      0x14\n        /* \"Tax.sol\":1173:1179  400000 */\n      0x061a80\n        /* \"Tax.sol\":1158:1164  income */\n      0x01\n        /* \"Tax.sol\":1158:1170  income[user] */\n      0x00\n        /* \"Tax.sol\":1165:1169  user */\n      dup9\n        /* \"Tax.sol\":1158:1170  income[user] */\n      0xffffffffffffffffffffffffffffffffffffffff\n      and\n      0xffffffffffffffffffffffffffffffffffffffff\n      and\n      dup2\n      mstore\n      0x20\n      add\n      swap1\n      dup2\n      mstore\n      0x20\n      add\n      0x00\n      keccak256\n      sload\n        /* \"Tax.sol\":1158:1179  income[user] - 400000 */\n      tag_71\n      swap2\n      swap1\n      tag_63\n      jump\t// in\n    tag_71:\n        /* \"Tax.sol\":1157:1185  (income[user] - 400000) * 20 */\n      tag_72\n      swap2\n      swap1\n      tag_65\n      jump\t// in\n    tag_72:\n        /* \"Tax.sol\":1156:1192  ((income[user] - 400000) * 20) / 100 */\n      tag_73\n      swap2\n      swap1\n      tag_67\n      jump\t// in\n    tag_73:\n        /* \"Tax.sol\":1156:1200  ((income[user] - 400000) * 20) / 100 + 22500 */\n      tag_74\n      swap2\n      swap1\n      tag_49\n      jump\t// in\n    tag_74:\n        /* \"Tax.sol\":1149:1200  return ((income[user] - 400000) * 20) / 100 + 22500 */\n      swap1\n      pop\n      jump(tag_57)\n        /* \"Tax.sol\":1083:1610  if(income[user] > 400000 && income[user] <= 800000){... */\n    tag_70:\n        /* \"Tax.sol\":1238:1244  800000 */\n      0x0c3500\n        /* \"Tax.sol\":1223:1229  income */\n      0x01\n        /* \"Tax.sol\":1223:1235  income[user] */\n      0x00\n        /* \"Tax.sol\":1230:1234  user */\n      dup6\n        /* \"Tax.sol\":1223:1235  income[user] */\n      0xffffffffffffffffffffffffffffffffffffffff\n      and\n      0xffffffffffffffffffffffffffffffffffffffff\n      and\n      dup2\n      mstore\n      0x20\n      add\n      swap1\n      dup2\n      mstore\n      0x20\n      add\n      0x00\n      keccak256\n      sload\n        /* \"Tax.sol\":1223:1244  income[user] > 800000 */\n      gt\n        /* \"Tax.sol\":1223:1271  income[user] > 800000 && income[user] <= 2000000 */\n      dup1\n      iszero\n      tag_76\n      jumpi\n      pop\n        /* \"Tax.sol\":1264:1271  2000000 */\n      0x1e8480\n        /* \"Tax.sol\":1248:1254  income */\n      0x01\n        /* \"Tax.sol\":1248:1260  income[user] */\n      0x00\n        /* \"Tax.sol\":1255:1259  user */\n      dup6\n        /* \"Tax.sol\":1248:1260  income[user] */\n      0xffffffffffffffffffffffffffffffffffffffff\n      and\n      0xffffffffffffffffffffffffffffffffffffffff\n      and\n      dup2\n      mstore\n      0x20\n      add\n      swap1\n      dup2\n      mstore\n      0x20\n      add\n      0x00\n      keccak256\n      sload\n        /* \"Tax.sol\":1248:1271  income[user] <= 2000000 */\n      gt\n      iszero\n        /* \"Tax.sol\":1223:1271  income[user] > 800000 && income[user] <= 2000000 */\n    tag_76:\n        /* \"Tax.sol\":1220:1610  if(income[user] > 800000 && income[user] <= 2000000){... */\n      iszero\n      tag_77\n      jumpi\n        /* \"Tax.sol\":1333:1339  102500 */\n      0x019064\n        /* \"Tax.sol\":1327:1330  100 */\n      0x64\n        /* \"Tax.sol\":1321:1323  25 */\n      0x19\n        /* \"Tax.sol\":1311:1317  800000 */\n      0x0c3500\n        /* \"Tax.sol\":1296:1302  income */\n      0x01\n        /* \"Tax.sol\":1296:1308  income[user] */\n      0x00\n        /* \"Tax.sol\":1303:1307  user */\n      dup9\n        /* \"Tax.sol\":1296:1308  income[user] */\n      0xffffffffffffffffffffffffffffffffffffffff\n      and\n      0xffffffffffffffffffffffffffffffffffffffff\n      and\n      dup2\n      mstore\n      0x20\n      add\n      swap1\n      dup2\n      mstore\n      0x20\n      add\n      0x00\n      keccak256\n      sload\n        /* \"Tax.sol\":1296:1317  income[user] - 800000 */\n      tag_78\n      swap2\n      swap1\n      tag_63\n      jump\t// in\n    tag_78:\n        /* \"Tax.sol\":1295:1323  (income[user] - 800000) * 25 */\n      tag_79\n      swap2\n      swap1\n      tag_65\n      jump\t// in\n    tag_79:\n        /* \"Tax.sol\":1294:1330  ((income[user] - 800000) * 25) / 100 */\n      tag_80\n      swap2\n      swap1\n      tag_67\n      jump\t// in\n    tag_80:\n        /* \"Tax.sol\":1294:1339  ((income[user] - 800000) * 25) / 100 + 102500 */\n      tag_81\n      swap2\n      swap1\n      tag_49\n      jump\t// in\n    tag_81:\n        /* \"Tax.sol\":1287:1339  return ((income[user] - 800000) * 25) / 100 + 102500 */\n      swap1\n      pop\n      jump(tag_57)\n        /* \"Tax.sol\":1220:1610  if(income[user] > 800000 && income[user] <= 2000000){... */\n    tag_77:\n        /* \"Tax.sol\":1377:1384  2000000 */\n      0x1e8480\n        /* \"Tax.sol\":1362:1368  income */\n      0x01\n        /* \"Tax.sol\":1362:1374  income[user] */\n      0x00\n        /* \"Tax.sol\":1369:1373  user */\n      dup6\n        /* \"Tax.sol\":1362:1374  income[user] */\n      0xffffffffffffffffffffffffffffffffffffffff\n      and\n      0xffffffffffffffffffffffffffffffffffffffff\n      and\n      dup2\n      mstore\n      0x20\n      add\n      swap1\n      dup2\n      mstore\n      0x20\n      add\n      0x00\n      keccak256\n      sload\n        /* \"Tax.sol\":1362:1384  income[user] > 2000000 */\n      gt\n        /* \"Tax.sol\":1362:1411  income[user] > 2000000 && income[user] <= 8000000 */\n      dup1\n      iszero\n      tag_83\n      jumpi\n      pop\n        /* \"Tax.sol\":1404:1411  8000000 */\n      0x7a1200\n        /* \"Tax.sol\":1388:1394  income */\n      0x01\n        /* \"Tax.sol\":1388:1400  income[user] */\n      0x00\n        /* \"Tax.sol\":1395:1399  user */\n      dup6\n        /* \"Tax.sol\":1388:1400  income[user] */\n      0xffffffffffffffffffffffffffffffffffffffff\n      and\n      0xffffffffffffffffffffffffffffffffffffffff\n      and\n      dup2\n      mstore\n      0x20\n      add\n      swap1\n      dup2\n      mstore\n      0x20\n      add\n      0x00\n      keccak256\n      sload\n        /* \"Tax.sol\":1388:1411  income[user] <= 8000000 */\n      gt\n      iszero\n        /* \"Tax.sol\":1362:1411  income[user] > 2000000 && income[user] <= 8000000 */\n    tag_83:\n        /* \"Tax.sol\":1359:1610  if(income[user] > 2000000 && income[user] <= 8000000){... */\n      iszero\n      tag_84\n      jumpi\n        /* \"Tax.sol\":1474:1480  402500 */\n      0x062444\n        /* \"Tax.sol\":1468:1471  100 */\n      0x64\n        /* \"Tax.sol\":1462:1464  30 */\n      0x1e\n        /* \"Tax.sol\":1451:1458  2000000 */\n      0x1e8480\n        /* \"Tax.sol\":1436:1442  income */\n      0x01\n        /* \"Tax.sol\":1436:1448  income[user] */\n      0x00\n        /* \"Tax.sol\":1443:1447  user */\n      dup9\n        /* \"Tax.sol\":1436:1448  income[user] */\n      0xffffffffffffffffffffffffffffffffffffffff\n      and\n      0xffffffffffffffffffffffffffffffffffffffff\n      and\n      dup2\n      mstore\n      0x20\n      add\n      swap1\n      dup2\n      mstore\n      0x20\n      add\n      0x00\n      keccak256\n      sload\n        /* \"Tax.sol\":1436:1458  income[user] - 2000000 */\n      tag_85\n      swap2\n      swap1\n      tag_63\n      jump\t// in\n    tag_85:\n        /* \"Tax.sol\":1435:1464  (income[user] - 2000000) * 30 */\n      tag_86\n      swap2\n      swap1\n      tag_65\n      jump\t// in\n    tag_86:\n        /* \"Tax.sol\":1434:1471  ((income[user] - 2000000) * 30) / 100 */\n      tag_87\n      swap2\n      swap1\n      tag_67\n      jump\t// in\n    tag_87:\n        /* \"Tax.sol\":1434:1480  ((income[user] - 2000000) * 30) / 100 + 402500 */\n      tag_88\n      swap2\n      swap1\n      tag_49\n      jump\t// in\n    tag_88:\n        /* \"Tax.sol\":1427:1480  return ((income[user] - 2000000) * 30) / 100 + 402500 */\n      swap1\n      pop\n      jump(tag_57)\n        /* \"Tax.sol\":1359:1610  if(income[user] > 2000000 && income[user] <= 8000000){... */\n    tag_84:\n        /* \"Tax.sol\":1518:1525  8000000 */\n      0x7a1200\n        /* \"Tax.sol\":1503:1509  income */\n      0x01\n        /* \"Tax.sol\":1503:1515  income[user] */\n      0x00\n        /* \"Tax.sol\":1510:1514  user */\n      dup6\n        /* \"Tax.sol\":1503:1515  income[user] */\n      0xffffffffffffffffffffffffffffffffffffffff\n      and\n      0xffffffffffffffffffffffffffffffffffffffff\n      and\n      dup2\n      mstore\n      0x20\n      add\n      swap1\n      dup2\n      mstore\n      0x20\n      add\n      0x00\n      keccak256\n      sload\n        /* \"Tax.sol\":1503:1525  income[user] > 8000000 */\n      gt\n        /* \"Tax.sol\":1500:1610  if(income[user] > 8000000){... */\n      iszero\n      tag_90\n      jumpi\n        /* \"Tax.sol\":1588:1595  2202500 */\n      0x219b84\n        /* \"Tax.sol\":1582:1585  100 */\n      0x64\n        /* \"Tax.sol\":1576:1578  35 */\n      0x23\n        /* \"Tax.sol\":1565:1572  5000000 */\n      0x4c4b40\n        /* \"Tax.sol\":1550:1556  income */\n      0x01\n        /* \"Tax.sol\":1550:1562  income[user] */\n      0x00\n        /* \"Tax.sol\":1557:1561  user */\n      dup9\n        /* \"Tax.sol\":1550:1562  income[user] */\n      0xffffffffffffffffffffffffffffffffffffffff\n      and\n      0xffffffffffffffffffffffffffffffffffffffff\n      and\n      dup2\n      mstore\n      0x20\n      add\n      swap1\n      dup2\n      mstore\n      0x20\n      add\n      0x00\n      keccak256\n      sload\n        /* \"Tax.sol\":1550:1572  income[user] - 5000000 */\n      tag_91\n      swap2\n      swap1\n      tag_63\n      jump\t// in\n    tag_91:\n        /* \"Tax.sol\":1549:1578  (income[user] - 5000000) * 35 */\n      tag_92\n      swap2\n      swap1\n      tag_65\n      jump\t// in\n    tag_92:\n        /* \"Tax.sol\":1548:1585  ((income[user] - 5000000) * 35) / 100 */\n      tag_93\n      swap2\n      swap1\n      tag_67\n      jump\t// in\n    tag_93:\n        /* \"Tax.sol\":1548:1595  ((income[user] - 5000000) * 35) / 100 + 2202500 */\n      tag_94\n      swap2\n      swap1\n      tag_49\n      jump\t// in\n    tag_94:\n        /* \"Tax.sol\":1541:1595  return ((income[user] - 5000000) * 35) / 100 + 2202500 */\n      swap1\n      pop\n      jump(tag_57)\n        /* \"Tax.sol\":1500:1610  if(income[user] > 8000000){... */\n    tag_90:\n        /* \"Tax.sol\":1653:1656  100 */\n      0x64\n        /* \"Tax.sol\":1645:1649  rate */\n      dup3\n        /* \"Tax.sol\":1630:1636  income */\n      0x01\n        /* \"Tax.sol\":1630:1642  income[user] */\n      0x00\n        /* \"Tax.sol\":1637:1641  user */\n      dup7\n        /* \"Tax.sol\":1630:1642  income[user] */\n      0xffffffffffffffffffffffffffffffffffffffff\n      and\n      0xffffffffffffffffffffffffffffffffffffffff\n      and\n      dup2\n      mstore\n      0x20\n      add\n      swap1\n      dup2\n      mstore\n      0x20\n      add\n      0x00\n      keccak256\n      sload\n        /* \"Tax.sol\":1630:1649  income[user] * rate */\n      tag_95\n      swap2\n      swap1\n      tag_65\n      jump\t// in\n    tag_95:\n        /* \"Tax.sol\":1629:1656  (income[user] * rate) / 100 */\n      tag_96\n      swap2\n      swap1\n      tag_67\n      jump\t// in\n    tag_96:\n        /* \"Tax.sol\":1622:1656  return (income[user] * rate) / 100 */\n      swap1\n      pop\n        /* \"Tax.sol\":737:1726  function calcTax(address user, uint256 rate) public view returns (uint256) {... */\n    tag_57:\n      swap3\n      swap2\n      pop\n      pop\n      jump\t// out\n        /* \"Tax.sol\":249:291  mapping(address => uint256) public taxPaid */\n    tag_39:\n      mstore(0x20, 0x02)\n      dup1\n      0x00\n      mstore\n      keccak256(0x00, 0x40)\n      0x00\n      swap2\n      pop\n      swap1\n      pop\n      sload\n      dup2\n      jump\t// out\n        /* \"Tax.sol\":2052:2195  function audit_User(address user) public view onlyGovernment returns (uint256, uint256) {... */\n    tag_44:\n        /* \"Tax.sol\":2122:2129  uint256 */\n      0x00\n        /* \"Tax.sol\":2131:2138  uint256 */\n      dup1\n        /* \"Tax.sol\":486:496  government */\n      0x00\n      dup1\n      sload\n      swap1\n      0x0100\n      exp\n      swap1\n      div\n      0xffffffffffffffffffffffffffffffffffffffff\n      and\n        /* \"Tax.sol\":472:496  msg.sender == government */\n      0xffffffffffffffffffffffffffffffffffffffff\n      and\n        /* \"Tax.sol\":472:482  msg.sender */\n      caller\n        /* \"Tax.sol\":472:496  msg.sender == government */\n      0xffffffffffffffffffffffffffffffffffffffff\n      and\n      eq\n        /* \"Tax.sol\":464:515  require(msg.sender == government, \"Not authorized\") */\n      tag_98\n      jumpi\n      mload(0x40)\n      0x08c379a000000000000000000000000000000000000000000000000000000000\n      dup2\n      mstore\n      0x04\n      add\n      tag_99\n      swap1\n      tag_100\n      jump\t// in\n    tag_99:\n      mload(0x40)\n      dup1\n      swap2\n      sub\n      swap1\n      revert\n    tag_98:\n        /* \"Tax.sol\":2159:2165  income */\n      0x01\n        /* \"Tax.sol\":2159:2171  income[user] */\n      0x00\n        /* \"Tax.sol\":2166:2170  user */\n      dup5\n        /* \"Tax.sol\":2159:2171  income[user] */\n      0xffffffffffffffffffffffffffffffffffffffff\n      and\n      0xffffffffffffffffffffffffffffffffffffffff\n      and\n      dup2\n      mstore\n      0x20\n      add\n      swap1\n      dup2\n      mstore\n      0x20\n      add\n      0x00\n      keccak256\n      sload\n        /* \"Tax.sol\":2173:2180  taxPaid */\n      0x02\n        /* \"Tax.sol\":2173:2186  taxPaid[user] */\n      0x00\n        /* \"Tax.sol\":2181:2185  user */\n      dup6\n        /* \"Tax.sol\":2173:2186  taxPaid[user] */\n      0xffffffffffffffffffffffffffffffffffffffff\n      and\n      0xffffffffffffffffffffffffffffffffffffffff\n      and\n      dup2\n      mstore\n      0x20\n      add\n      swap1\n      dup2\n      mstore\n      0x20\n      add\n      0x00\n      keccak256\n      sload\n        /* \"Tax.sol\":2151:2187  return (income[user], taxPaid[user]) */\n      swap2\n      pop\n      swap2\n      pop\n        /* \"Tax.sol\":2052:2195  function audit_User(address user) public view onlyGovernment returns (uint256, uint256) {... */\n      swap2\n      pop\n      swap2\n      jump\t// out\n        /* \"#utility.yul\":88:205   */\n    tag_103:\n        /* \"#utility.yul\":197:198   */\n      0x00\n        /* \"#utility.yul\":194:195   */\n      dup1\n        /* \"#utility.yul\":187:199   */\n      revert\n        /* \"#utility.yul\":334:411   */\n    tag_105:\n        /* \"#utility.yul\":371:378   */\n      0x00\n        /* \"#utility.yul\":400:405   */\n      dup2\n        /* \"#utility.yul\":389:405   */\n      swap1\n      pop\n        /* \"#utility.yul\":334:411   */\n      swap2\n      swap1\n      pop\n      jump\t// out\n        /* \"#utility.yul\":417:539   */\n    tag_106:\n        /* \"#utility.yul\":490:514   */\n      tag_127\n        /* \"#utility.yul\":508:513   */\n      dup2\n        /* \"#utility.yul\":490:514   */\n      tag_105\n      jump\t// in\n    tag_127:\n        /* \"#utility.yul\":483:488   */\n      dup2\n        /* \"#utility.yul\":480:515   */\n      eq\n        /* \"#utility.yul\":470:533   */\n      tag_128\n      jumpi\n        /* \"#utility.yul\":529:530   */\n      0x00\n        /* \"#utility.yul\":526:527   */\n      dup1\n        /* \"#utility.yul\":519:531   */\n      revert\n        /* \"#utility.yul\":470:533   */\n    tag_128:\n        /* \"#utility.yul\":417:539   */\n      pop\n      jump\t// out\n        /* \"#utility.yul\":545:684   */\n    tag_107:\n        /* \"#utility.yul\":591:596   */\n      0x00\n        /* \"#utility.yul\":629:635   */\n      dup2\n        /* \"#utility.yul\":616:636   */\n      calldataload\n        /* \"#utility.yul\":607:636   */\n      swap1\n      pop\n        /* \"#utility.yul\":645:678   */\n      tag_130\n        /* \"#utility.yul\":672:677   */\n      dup2\n        /* \"#utility.yul\":645:678   */\n      tag_106\n      jump\t// in\n    tag_130:\n        /* \"#utility.yul\":545:684   */\n      swap3\n      swap2\n      pop\n      pop\n      jump\t// out\n        /* \"#utility.yul\":690:1019   */\n    tag_13:\n        /* \"#utility.yul\":749:755   */\n      0x00\n        /* \"#utility.yul\":798:800   */\n      0x20\n        /* \"#utility.yul\":786:795   */\n      dup3\n        /* \"#utility.yul\":777:784   */\n      dup5\n        /* \"#utility.yul\":773:796   */\n      sub\n        /* \"#utility.yul\":769:801   */\n      slt\n        /* \"#utility.yul\":766:885   */\n      iszero\n      tag_132\n      jumpi\n        /* \"#utility.yul\":804:883   */\n      tag_133\n      tag_103\n      jump\t// in\n    tag_133:\n        /* \"#utility.yul\":766:885   */\n    tag_132:\n        /* \"#utility.yul\":924:925   */\n      0x00\n        /* \"#utility.yul\":949:1002   */\n      tag_134\n        /* \"#utility.yul\":994:1001   */\n      dup5\n        /* \"#utility.yul\":985:991   */\n      dup3\n        /* \"#utility.yul\":974:983   */\n      dup6\n        /* \"#utility.yul\":970:992   */\n      add\n        /* \"#utility.yul\":949:1002   */\n      tag_107\n      jump\t// in\n    tag_134:\n        /* \"#utility.yul\":939:1002   */\n      swap2\n      pop\n        /* \"#utility.yul\":895:1012   */\n      pop\n        /* \"#utility.yul\":690:1019   */\n      swap3\n      swap2\n      pop\n      pop\n      jump\t// out\n        /* \"#utility.yul\":1025:1151   */\n    tag_108:\n        /* \"#utility.yul\":1062:1069   */\n      0x00\n        /* \"#utility.yul\":1102:1144   */\n      0xffffffffffffffffffffffffffffffffffffffff\n        /* \"#utility.yul\":1095:1100   */\n      dup3\n        /* \"#utility.yul\":1091:1145   */\n      and\n        /* \"#utility.yul\":1080:1145   */\n      swap1\n      pop\n        /* \"#utility.yul\":1025:1151   */\n      swap2\n      swap1\n      pop\n      jump\t// out\n        /* \"#utility.yul\":1157:1253   */\n    tag_109:\n        /* \"#utility.yul\":1194:1201   */\n      0x00\n        /* \"#utility.yul\":1223:1247   */\n      tag_137\n        /* \"#utility.yul\":1241:1246   */\n      dup3\n        /* \"#utility.yul\":1223:1247   */\n      tag_108\n      jump\t// in\n    tag_137:\n        /* \"#utility.yul\":1212:1247   */\n      swap1\n      pop\n        /* \"#utility.yul\":1157:1253   */\n      swap2\n      swap1\n      pop\n      jump\t// out\n        /* \"#utility.yul\":1259:1377   */\n    tag_110:\n        /* \"#utility.yul\":1346:1370   */\n      tag_139\n        /* \"#utility.yul\":1364:1369   */\n      dup2\n        /* \"#utility.yul\":1346:1370   */\n      tag_109\n      jump\t// in\n    tag_139:\n        /* \"#utility.yul\":1341:1344   */\n      dup3\n        /* \"#utility.yul\":1334:1371   */\n      mstore\n        /* \"#utility.yul\":1259:1377   */\n      pop\n      pop\n      jump\t// out\n        /* \"#utility.yul\":1383:1605   */\n    tag_19:\n        /* \"#utility.yul\":1476:1480   */\n      0x00\n        /* \"#utility.yul\":1514:1516   */\n      0x20\n        /* \"#utility.yul\":1503:1512   */\n      dup3\n        /* \"#utility.yul\":1499:1517   */\n      add\n        /* \"#utility.yul\":1491:1517   */\n      swap1\n      pop\n        /* \"#utility.yul\":1527:1598   */\n      tag_141\n        /* \"#utility.yul\":1595:1596   */\n      0x00\n        /* \"#utility.yul\":1584:1593   */\n      dup4\n        /* \"#utility.yul\":1580:1597   */\n      add\n        /* \"#utility.yul\":1571:1577   */\n      dup5\n        /* \"#utility.yul\":1527:1598   */\n      tag_110\n      jump\t// in\n    tag_141:\n        /* \"#utility.yul\":1383:1605   */\n      swap3\n      swap2\n      pop\n      pop\n      jump\t// out\n        /* \"#utility.yul\":1611:1733   */\n    tag_111:\n        /* \"#utility.yul\":1684:1708   */\n      tag_143\n        /* \"#utility.yul\":1702:1707   */\n      dup2\n        /* \"#utility.yul\":1684:1708   */\n      tag_109\n      jump\t// in\n    tag_143:\n        /* \"#utility.yul\":1677:1682   */\n      dup2\n        /* \"#utility.yul\":1674:1709   */\n      eq\n        /* \"#utility.yul\":1664:1727   */\n      tag_144\n      jumpi\n        /* \"#utility.yul\":1723:1724   */\n      0x00\n        /* \"#utility.yul\":1720:1721   */\n      dup1\n        /* \"#utility.yul\":1713:1725   */\n      revert\n        /* \"#utility.yul\":1664:1727   */\n    tag_144:\n        /* \"#utility.yul\":1611:1733   */\n      pop\n      jump\t// out\n        /* \"#utility.yul\":1739:1878   */\n    tag_112:\n        /* \"#utility.yul\":1785:1790   */\n      0x00\n        /* \"#utility.yul\":1823:1829   */\n      dup2\n        /* \"#utility.yul\":1810:1830   */\n      calldataload\n        /* \"#utility.yul\":1801:1830   */\n      swap1\n      pop\n        /* \"#utility.yul\":1839:1872   */\n      tag_146\n        /* \"#utility.yul\":1866:1871   */\n      dup2\n        /* \"#utility.yul\":1839:1872   */\n      tag_111\n      jump\t// in\n    tag_146:\n        /* \"#utility.yul\":1739:1878   */\n      swap3\n      swap2\n      pop\n      pop\n      jump\t// out\n        /* \"#utility.yul\":1884:2213   */\n    tag_23:\n        /* \"#utility.yul\":1943:1949   */\n      0x00\n        /* \"#utility.yul\":1992:1994   */\n      0x20\n        /* \"#utility.yul\":1980:1989   */\n      dup3\n        /* \"#utility.yul\":1971:1978   */\n      dup5\n        /* \"#utility.yul\":1967:1990   */\n      sub\n        /* \"#utility.yul\":1963:1995   */\n      slt\n        /* \"#utility.yul\":1960:2079   */\n      iszero\n      tag_148\n      jumpi\n        /* \"#utility.yul\":1998:2077   */\n      tag_149\n      tag_103\n      jump\t// in\n    tag_149:\n        /* \"#utility.yul\":1960:2079   */\n    tag_148:\n        /* \"#utility.yul\":2118:2119   */\n      0x00\n        /* \"#utility.yul\":2143:2196   */\n      tag_150\n        /* \"#utility.yul\":2188:2195   */\n      dup5\n        /* \"#utility.yul\":2179:2185   */\n      dup3\n        /* \"#utility.yul\":2168:2177   */\n      dup6\n        /* \"#utility.yul\":2164:2186   */\n      add\n        /* \"#utility.yul\":2143:2196   */\n      tag_112\n      jump\t// in\n    tag_150:\n        /* \"#utility.yul\":2133:2196   */\n      swap2\n      pop\n        /* \"#utility.yul\":2089:2206   */\n      pop\n        /* \"#utility.yul\":1884:2213   */\n      swap3\n      swap2\n      pop\n      pop\n      jump\t// out\n        /* \"#utility.yul\":2219:2337   */\n    tag_113:\n        /* \"#utility.yul\":2306:2330   */\n      tag_152\n        /* \"#utility.yul\":2324:2329   */\n      dup2\n        /* \"#utility.yul\":2306:2330   */\n      tag_105\n      jump\t// in\n    tag_152:\n        /* \"#utility.yul\":2301:2304   */\n      dup3\n        /* \"#utility.yul\":2294:2331   */\n      mstore\n        /* \"#utility.yul\":2219:2337   */\n      pop\n      pop\n      jump\t// out\n        /* \"#utility.yul\":2343:2565   */\n    tag_26:\n        /* \"#utility.yul\":2436:2440   */\n      0x00\n        /* \"#utility.yul\":2474:2476   */\n      0x20\n        /* \"#utility.yul\":2463:2472   */\n      dup3\n        /* \"#utility.yul\":2459:2477   */\n      add\n        /* \"#utility.yul\":2451:2477   */\n      swap1\n      pop\n        /* \"#utility.yul\":2487:2558   */\n      tag_154\n        /* \"#utility.yul\":2555:2556   */\n      0x00\n        /* \"#utility.yul\":2544:2553   */\n      dup4\n        /* \"#utility.yul\":2540:2557   */\n      add\n        /* \"#utility.yul\":2531:2537   */\n      dup5\n        /* \"#utility.yul\":2487:2558   */\n      tag_113\n      jump\t// in\n    tag_154:\n        /* \"#utility.yul\":2343:2565   */\n      swap3\n      swap2\n      pop\n      pop\n      jump\t// out\n        /* \"#utility.yul\":2571:3045   */\n    tag_33:\n        /* \"#utility.yul\":2639:2645   */\n      0x00\n        /* \"#utility.yul\":2647:2653   */\n      dup1\n        /* \"#utility.yul\":2696:2698   */\n      0x40\n        /* \"#utility.yul\":2684:2693   */\n      dup4\n        /* \"#utility.yul\":2675:2682   */\n      dup6\n        /* \"#utility.yul\":2671:2694   */\n      sub\n        /* \"#utility.yul\":2667:2699   */\n      slt\n        /* \"#utility.yul\":2664:2783   */\n      iszero\n      tag_156\n      jumpi\n        /* \"#utility.yul\":2702:2781   */\n      tag_157\n      tag_103\n      jump\t// in\n    tag_157:\n        /* \"#utility.yul\":2664:2783   */\n    tag_156:\n        /* \"#utility.yul\":2822:2823   */\n      0x00\n        /* \"#utility.yul\":2847:2900   */\n      tag_158\n        /* \"#utility.yul\":2892:2899   */\n      dup6\n        /* \"#utility.yul\":2883:2889   */\n      dup3\n        /* \"#utility.yul\":2872:2881   */\n      dup7\n        /* \"#utility.yul\":2868:2890   */\n      add\n        /* \"#utility.yul\":2847:2900   */\n      tag_112\n      jump\t// in\n    tag_158:\n        /* \"#utility.yul\":2837:2900   */\n      swap3\n      pop\n        /* \"#utility.yul\":2793:2910   */\n      pop\n        /* \"#utility.yul\":2949:2951   */\n      0x20\n        /* \"#utility.yul\":2975:3028   */\n      tag_159\n        /* \"#utility.yul\":3020:3027   */\n      dup6\n        /* \"#utility.yul\":3011:3017   */\n      dup3\n        /* \"#utility.yul\":3000:3009   */\n      dup7\n        /* \"#utility.yul\":2996:3018   */\n      add\n        /* \"#utility.yul\":2975:3028   */\n      tag_107\n      jump\t// in\n    tag_159:\n        /* \"#utility.yul\":2965:3028   */\n      swap2\n      pop\n        /* \"#utility.yul\":2920:3038   */\n      pop\n        /* \"#utility.yul\":2571:3045   */\n      swap3\n      pop\n      swap3\n      swap1\n      pop\n      jump\t// out\n        /* \"#utility.yul\":3051:3383   */\n    tag_46:\n        /* \"#utility.yul\":3172:3176   */\n      0x00\n        /* \"#utility.yul\":3210:3212   */\n      0x40\n        /* \"#utility.yul\":3199:3208   */\n      dup3\n        /* \"#utility.yul\":3195:3213   */\n      add\n        /* \"#utility.yul\":3187:3213   */\n      swap1\n      pop\n        /* \"#utility.yul\":3223:3294   */\n      tag_161\n        /* \"#utility.yul\":3291:3292   */\n      0x00\n        /* \"#utility.yul\":3280:3289   */\n      dup4\n        /* \"#utility.yul\":3276:3293   */\n      add\n        /* \"#utility.yul\":3267:3273   */\n      dup6\n        /* \"#utility.yul\":3223:3294   */\n      tag_113\n      jump\t// in\n    tag_161:\n        /* \"#utility.yul\":3304:3376   */\n      tag_162\n        /* \"#utility.yul\":3372:3374   */\n      0x20\n        /* \"#utility.yul\":3361:3370   */\n      dup4\n        /* \"#utility.yul\":3357:3375   */\n      add\n        /* \"#utility.yul\":3348:3354   */\n      dup5\n        /* \"#utility.yul\":3304:3376   */\n      tag_113\n      jump\t// in\n    tag_162:\n        /* \"#utility.yul\":3051:3383   */\n      swap4\n      swap3\n      pop\n      pop\n      pop\n      jump\t// out\n        /* \"#utility.yul\":3389:3569   */\n    tag_114:\n        /* \"#utility.yul\":3437:3514   */\n      0x4e487b7100000000000000000000000000000000000000000000000000000000\n        /* \"#utility.yul\":3434:3435   */\n      0x00\n        /* \"#utility.yul\":3427:3515   */\n      mstore\n        /* \"#utility.yul\":3534:3538   */\n      0x11\n        /* \"#utility.yul\":3531:3532   */\n      0x04\n        /* \"#utility.yul\":3524:3539   */\n      mstore\n        /* \"#utility.yul\":3558:3562   */\n      0x24\n        /* \"#utility.yul\":3555:3556   */\n      0x00\n        /* \"#utility.yul\":3548:3563   */\n      revert\n        /* \"#utility.yul\":3575:3766   */\n    tag_49:\n        /* \"#utility.yul\":3615:3618   */\n      0x00\n        /* \"#utility.yul\":3634:3654   */\n      tag_165\n        /* \"#utility.yul\":3652:3653   */\n      dup3\n        /* \"#utility.yul\":3634:3654   */\n      tag_105\n      jump\t// in\n    tag_165:\n        /* \"#utility.yul\":3629:3654   */\n      swap2\n      pop\n        /* \"#utility.yul\":3668:3688   */\n      tag_166\n        /* \"#utility.yul\":3686:3687   */\n      dup4\n        /* \"#utility.yul\":3668:3688   */\n      tag_105\n      jump\t// in\n    tag_166:\n        /* \"#utility.yul\":3663:3688   */\n      swap3\n      pop\n        /* \"#utility.yul\":3711:3712   */\n      dup3\n        /* \"#utility.yul\":3708:3709   */\n      dup3\n        /* \"#utility.yul\":3704:3713   */\n      add\n        /* \"#utility.yul\":3697:3713   */\n      swap1\n      pop\n        /* \"#utility.yul\":3732:3735   */\n      dup1\n        /* \"#utility.yul\":3729:3730   */\n      dup3\n        /* \"#utility.yul\":3726:3736   */\n      gt\n        /* \"#utility.yul\":3723:3759   */\n      iszero\n      tag_167\n      jumpi\n        /* \"#utility.yul\":3739:3757   */\n      tag_168\n      tag_114\n      jump\t// in\n    tag_168:\n        /* \"#utility.yul\":3723:3759   */\n    tag_167:\n        /* \"#utility.yul\":3575:3766   */\n      swap3\n      swap2\n      pop\n      pop\n      jump\t// out\n        /* \"#utility.yul\":3772:3941   */\n    tag_115:\n        /* \"#utility.yul\":3856:3867   */\n      0x00\n        /* \"#utility.yul\":3890:3896   */\n      dup3\n        /* \"#utility.yul\":3885:3888   */\n      dup3\n        /* \"#utility.yul\":3878:3897   */\n      mstore\n        /* \"#utility.yul\":3930:3934   */\n      0x20\n        /* \"#utility.yul\":3925:3928   */\n      dup3\n        /* \"#utility.yul\":3921:3935   */\n      add\n        /* \"#utility.yul\":3906:3935   */\n      swap1\n      pop\n        /* \"#utility.yul\":3772:3941   */\n      swap3\n      swap2\n      pop\n      pop\n      jump\t// out\n        /* \"#utility.yul\":3947:4121   */\n    tag_116:\n        /* \"#utility.yul\":4087:4113   */\n      0x496e73756666696369656e7420746178207061796d656e740000000000000000\n        /* \"#utility.yul\":4083:4084   */\n      0x00\n        /* \"#utility.yul\":4075:4081   */\n      dup3\n        /* \"#utility.yul\":4071:4085   */\n      add\n        /* \"#utility.yul\":4064:4114   */\n      mstore\n        /* \"#utility.yul\":3947:4121   */\n      pop\n      jump\t// out\n        /* \"#utility.yul\":4127:4493   */\n    tag_117:\n        /* \"#utility.yul\":4269:4272   */\n      0x00\n        /* \"#utility.yul\":4290:4357   */\n      tag_172\n        /* \"#utility.yul\":4354:4356   */\n      0x18\n        /* \"#utility.yul\":4349:4352   */\n      dup4\n        /* \"#utility.yul\":4290:4357   */\n      tag_115\n      jump\t// in\n    tag_172:\n        /* \"#utility.yul\":4283:4357   */\n      swap2\n      pop\n        /* \"#utility.yul\":4366:4459   */\n      tag_173\n        /* \"#utility.yul\":4455:4458   */\n      dup3\n        /* \"#utility.yul\":4366:4459   */\n      tag_116\n      jump\t// in\n    tag_173:\n        /* \"#utility.yul\":4484:4486   */\n      0x20\n        /* \"#utility.yul\":4479:4482   */\n      dup3\n        /* \"#utility.yul\":4475:4487   */\n      add\n        /* \"#utility.yul\":4468:4487   */\n      swap1\n      pop\n        /* \"#utility.yul\":4127:4493   */\n      swap2\n      swap1\n      pop\n      jump\t// out\n        /* \"#utility.yul\":4499:4918   */\n    tag_54:\n        /* \"#utility.yul\":4665:4669   */\n      0x00\n        /* \"#utility.yul\":4703:4705   */\n      0x20\n        /* \"#utility.yul\":4692:4701   */\n      dup3\n        /* \"#utility.yul\":4688:4706   */\n      add\n        /* \"#utility.yul\":4680:4706   */\n      swap1\n      pop\n        /* \"#utility.yul\":4752:4761   */\n      dup2\n        /* \"#utility.yul\":4746:4750   */\n      dup2\n        /* \"#utility.yul\":4742:4762   */\n      sub\n        /* \"#utility.yul\":4738:4739   */\n      0x00\n        /* \"#utility.yul\":4727:4736   */\n      dup4\n        /* \"#utility.yul\":4723:4740   */\n      add\n        /* \"#utility.yul\":4716:4763   */\n      mstore\n        /* \"#utility.yul\":4780:4911   */\n      tag_175\n        /* \"#utility.yul\":4906:4910   */\n      dup2\n        /* \"#utility.yul\":4780:4911   */\n      tag_117\n      jump\t// in\n    tag_175:\n        /* \"#utility.yul\":4772:4911   */\n      swap1\n      pop\n        /* \"#utility.yul\":4499:4918   */\n      swap2\n      swap1\n      pop\n      jump\t// out\n        /* \"#utility.yul\":4924:5118   */\n    tag_63:\n        /* \"#utility.yul\":4964:4968   */\n      0x00\n        /* \"#utility.yul\":4984:5004   */\n      tag_177\n        /* \"#utility.yul\":5002:5003   */\n      dup3\n        /* \"#utility.yul\":4984:5004   */\n      tag_105\n      jump\t// in\n    tag_177:\n        /* \"#utility.yul\":4979:5004   */\n      swap2\n      pop\n        /* \"#utility.yul\":5018:5038   */\n      tag_178\n        /* \"#utility.yul\":5036:5037   */\n      dup4\n        /* \"#utility.yul\":5018:5038   */\n      tag_105\n      jump\t// in\n    tag_178:\n        /* \"#utility.yul\":5013:5038   */\n      swap3\n      pop\n        /* \"#utility.yul\":5062:5063   */\n      dup3\n        /* \"#utility.yul\":5059:5060   */\n      dup3\n        /* \"#utility.yul\":5055:5064   */\n      sub\n        /* \"#utility.yul\":5047:5064   */\n      swap1\n      pop\n        /* \"#utility.yul\":5086:5087   */\n      dup2\n        /* \"#utility.yul\":5080:5084   */\n      dup2\n        /* \"#utility.yul\":5077:5088   */\n      gt\n        /* \"#utility.yul\":5074:5111   */\n      iszero\n      tag_179\n      jumpi\n        /* \"#utility.yul\":5091:5109   */\n      tag_180\n      tag_114\n      jump\t// in\n    tag_180:\n        /* \"#utility.yul\":5074:5111   */\n    tag_179:\n        /* \"#utility.yul\":4924:5118   */\n      swap3\n      swap2\n      pop\n      pop\n      jump\t// out\n        /* \"#utility.yul\":5124:5534   */\n    tag_65:\n        /* \"#utility.yul\":5164:5171   */\n      0x00\n        /* \"#utility.yul\":5187:5207   */\n      tag_182\n        /* \"#utility.yul\":5205:5206   */\n      dup3\n        /* \"#utility.yul\":5187:5207   */\n      tag_105\n      jump\t// in\n    tag_182:\n        /* \"#utility.yul\":5182:5207   */\n      swap2\n      pop\n        /* \"#utility.yul\":5221:5241   */\n      tag_183\n        /* \"#utility.yul\":5239:5240   */\n      dup4\n        /* \"#utility.yul\":5221:5241   */\n      tag_105\n      jump\t// in\n    tag_183:\n        /* \"#utility.yul\":5216:5241   */\n      swap3\n      pop\n        /* \"#utility.yul\":5276:5277   */\n      dup3\n        /* \"#utility.yul\":5273:5274   */\n      dup3\n        /* \"#utility.yul\":5269:5278   */\n      mul\n        /* \"#utility.yul\":5298:5328   */\n      tag_184\n        /* \"#utility.yul\":5316:5327   */\n      dup2\n        /* \"#utility.yul\":5298:5328   */\n      tag_105\n      jump\t// in\n    tag_184:\n        /* \"#utility.yul\":5287:5328   */\n      swap2\n      pop\n        /* \"#utility.yul\":5477:5478   */\n      dup3\n        /* \"#utility.yul\":5468:5475   */\n      dup3\n        /* \"#utility.yul\":5464:5479   */\n      div\n        /* \"#utility.yul\":5461:5462   */\n      dup5\n        /* \"#utility.yul\":5458:5480   */\n      eq\n        /* \"#utility.yul\":5438:5439   */\n      dup4\n        /* \"#utility.yul\":5431:5440   */\n      iszero\n        /* \"#utility.yul\":5411:5494   */\n      or\n        /* \"#utility.yul\":5388:5527   */\n      tag_185\n      jumpi\n        /* \"#utility.yul\":5507:5525   */\n      tag_186\n      tag_114\n      jump\t// in\n    tag_186:\n        /* \"#utility.yul\":5388:5527   */\n    tag_185:\n        /* \"#utility.yul\":5172:5534   */\n      pop\n        /* \"#utility.yul\":5124:5534   */\n      swap3\n      swap2\n      pop\n      pop\n      jump\t// out\n        /* \"#utility.yul\":5540:5720   */\n    tag_118:\n        /* \"#utility.yul\":5588:5665   */\n      0x4e487b7100000000000000000000000000000000000000000000000000000000\n        /* \"#utility.yul\":5585:5586   */\n      0x00\n        /* \"#utility.yul\":5578:5666   */\n      mstore\n        /* \"#utility.yul\":5685:5689   */\n      0x12\n        /* \"#utility.yul\":5682:5683   */\n      0x04\n        /* \"#utility.yul\":5675:5690   */\n      mstore\n        /* \"#utility.yul\":5709:5713   */\n      0x24\n        /* \"#utility.yul\":5706:5707   */\n      0x00\n        /* \"#utility.yul\":5699:5714   */\n      revert\n        /* \"#utility.yul\":5726:5911   */\n    tag_67:\n        /* \"#utility.yul\":5766:5767   */\n      0x00\n        /* \"#utility.yul\":5783:5803   */\n      tag_189\n        /* \"#utility.yul\":5801:5802   */\n      dup3\n        /* \"#utility.yul\":5783:5803   */\n      tag_105\n      jump\t// in\n    tag_189:\n        /* \"#utility.yul\":5778:5803   */\n      swap2\n      pop\n        /* \"#utility.yul\":5817:5837   */\n      tag_190\n        /* \"#utility.yul\":5835:5836   */\n      dup4\n        /* \"#utility.yul\":5817:5837   */\n      tag_105\n      jump\t// in\n    tag_190:\n        /* \"#utility.yul\":5812:5837   */\n      swap3\n      pop\n        /* \"#utility.yul\":5856:5857   */\n      dup3\n        /* \"#utility.yul\":5846:5881   */\n      tag_191\n      jumpi\n        /* \"#utility.yul\":5861:5879   */\n      tag_192\n      tag_118\n      jump\t// in\n    tag_192:\n        /* \"#utility.yul\":5846:5881   */\n    tag_191:\n        /* \"#utility.yul\":5903:5904   */\n      dup3\n        /* \"#utility.yul\":5900:5901   */\n      dup3\n        /* \"#utility.yul\":5896:5905   */\n      div\n        /* \"#utility.yul\":5891:5905   */\n      swap1\n      pop\n        /* \"#utility.yul\":5726:5911   */\n      swap3\n      swap2\n      pop\n      pop\n      jump\t// out\n        /* \"#utility.yul\":5917:6081   */\n    tag_119:\n        /* \"#utility.yul\":6057:6073   */\n      0x4e6f7420617574686f72697a6564000000000000000000000000000000000000\n        /* \"#utility.yul\":6053:6054   */\n      0x00\n        /* \"#utility.yul\":6045:6051   */\n      dup3\n        /* \"#utility.yul\":6041:6055   */\n      add\n        /* \"#utility.yul\":6034:6074   */\n      mstore\n        /* \"#utility.yul\":5917:6081   */\n      pop\n      jump\t// out\n        /* \"#utility.yul\":6087:6453   */\n    tag_120:\n        /* \"#utility.yul\":6229:6232   */\n      0x00\n        /* \"#utility.yul\":6250:6317   */\n      tag_195\n        /* \"#utility.yul\":6314:6316   */\n      0x0e\n        /* \"#utility.yul\":6309:6312   */\n      dup4\n        /* \"#utility.yul\":6250:6317   */\n      tag_115\n      jump\t// in\n    tag_195:\n        /* \"#utility.yul\":6243:6317   */\n      swap2\n      pop\n        /* \"#utility.yul\":6326:6419   */\n      tag_196\n        /* \"#utility.yul\":6415:6418   */\n      dup3\n        /* \"#utility.yul\":6326:6419   */\n      tag_119\n      jump\t// in\n    tag_196:\n        /* \"#utility.yul\":6444:6446   */\n      0x20\n        /* \"#utility.yul\":6439:6442   */\n      dup3\n        /* \"#utility.yul\":6435:6447   */\n      add\n        /* \"#utility.yul\":6428:6447   */\n      swap1\n      pop\n        /* \"#utility.yul\":6087:6453   */\n      swap2\n      swap1\n      pop\n      jump\t// out\n        /* \"#utility.yul\":6459:6878   */\n    tag_100:\n        /* \"#utility.yul\":6625:6629   */\n      0x00\n        /* \"#utility.yul\":6663:6665   */\n      0x20\n        /* \"#utility.yul\":6652:6661   */\n      dup3\n        /* \"#utility.yul\":6648:6666   */\n      add\n        /* \"#utility.yul\":6640:6666   */\n      swap1\n      pop\n        /* \"#utility.yul\":6712:6721   */\n      dup2\n        /* \"#utility.yul\":6706:6710   */\n      dup2\n        /* \"#utility.yul\":6702:6722   */\n      sub\n        /* \"#utility.yul\":6698:6699   */\n      0x00\n        /* \"#utility.yul\":6687:6696   */\n      dup4\n        /* \"#utility.yul\":6683:6700   */\n      add\n        /* \"#utility.yul\":6676:6723   */\n      mstore\n        /* \"#utility.yul\":6740:6871   */\n      tag_198\n        /* \"#utility.yul\":6866:6870   */\n      dup2\n        /* \"#utility.yul\":6740:6871   */\n      tag_120\n      jump\t// in\n    tag_198:\n        /* \"#utility.yul\":6732:6871   */\n      swap1\n      pop\n        /* \"#utility.yul\":6459:6878   */\n      swap2\n      swap1\n      pop\n      jump\t// out\n\n    auxdata: 0xa2646970667358221220fb202b4cbfc3ba9d8849858478dd2b90b1af43dd5d4c3430eafd5ecc14e0621264736f6c634300081a0033\n}\n",
				"bytecode": {
					"linkReferences": {},
					"object": "6080604052348015600e575f80fd5b50335f806101000a81548173ffffffffffffffffffffffffffffffffffffffff021916908373ffffffffffffffffffffffffffffffffffffffff160217905550610e328061005b5f395ff3fe60806040526004361061006f575f3560e01c8063a05aaf501161004d578063a05aaf5014610101578063a28346cb1461011d578063a988e37114610159578063b0e45c04146101955761006f565b806316fd5362146100735780632672f5261461009b5780638ea1eacc146100c5575b5f80fd5b34801561007e575f80fd5b5061009960048036038101906100949190610a86565b6101d2565b005b3480156100a6575f80fd5b506100af610228565b6040516100bc9190610af0565b60405180910390f35b3480156100d0575f80fd5b506100eb60048036038101906100e69190610b33565b61024b565b6040516100f89190610b6d565b60405180910390f35b61011b60048036038101906101169190610a86565b610260565b005b348015610128575f80fd5b50610143600480360381019061013e9190610b86565b610355565b6040516101509190610b6d565b60405180910390f35b348015610164575f80fd5b5061017f600480360381019061017a9190610b33565b610926565b60405161018c9190610b6d565b60405180910390f35b3480156101a0575f80fd5b506101bb60048036038101906101b69190610b33565b61093b565b6040516101c9929190610bc4565b60405180910390f35b8060015f3373ffffffffffffffffffffffffffffffffffffffff1673ffffffffffffffffffffffffffffffffffffffff1681526020019081526020015f205f82825461021e9190610c18565b9250508190555050565b5f8054906101000a900473ffffffffffffffffffffffffffffffffffffffff1681565b6001602052805f5260405f205f915090505481565b5f61026b3383610355565b9050803411156102b0576040517f08c379a00000000000000000000000000000000000000000000000000000000081526004016102a790610ca5565b60405180910390fd5b8060025f3373ffffffffffffffffffffffffffffffffffffffff1673ffffffffffffffffffffffffffffffffffffffff1681526020019081526020015f205f8282546102fc9190610c18565b925050819055503373ffffffffffffffffffffffffffffffffffffffff167f169b77a6399e6ec4a002ba8a07a8eaaf6944dacdbcb51ccb0655f4f7deb7760a826040516103499190610b6d565b60405180910390a25050565b5f6203d09060015f8573ffffffffffffffffffffffffffffffffffffffff1673ffffffffffffffffffffffffffffffffffffffff1681526020019081526020015f2054116103e25760015f8473ffffffffffffffffffffffffffffffffffffffff1673ffffffffffffffffffffffffffffffffffffffff1681526020019081526020015f20549050610920565b6203d09060015f8573ffffffffffffffffffffffffffffffffffffffff1673ffffffffffffffffffffffffffffffffffffffff1681526020019081526020015f2054118015610471575062061a8060015f8573ffffffffffffffffffffffffffffffffffffffff1673ffffffffffffffffffffffffffffffffffffffff1681526020019081526020015f205411155b156104e1576064600f6203d09060015f8773ffffffffffffffffffffffffffffffffffffffff1673ffffffffffffffffffffffffffffffffffffffff1681526020019081526020015f20546104c69190610cc3565b6104d09190610cf6565b6104da9190610d64565b9050610920565b62061a8060015f8573ffffffffffffffffffffffffffffffffffffffff1673ffffffffffffffffffffffffffffffffffffffff1681526020019081526020015f20541180156105705750620c350060015f8573ffffffffffffffffffffffffffffffffffffffff1673ffffffffffffffffffffffffffffffffffffffff1681526020019081526020015f205411155b156105ed576157e46064601462061a8060015f8873ffffffffffffffffffffffffffffffffffffffff1673ffffffffffffffffffffffffffffffffffffffff1681526020019081526020015f20546105c89190610cc3565b6105d29190610cf6565b6105dc9190610d64565b6105e69190610c18565b9050610920565b620c350060015f8573ffffffffffffffffffffffffffffffffffffffff1673ffffffffffffffffffffffffffffffffffffffff1681526020019081526020015f205411801561067c5750621e848060015f8573ffffffffffffffffffffffffffffffffffffffff1673ffffffffffffffffffffffffffffffffffffffff1681526020019081526020015f205411155b156106fa576201906460646019620c350060015f8873ffffffffffffffffffffffffffffffffffffffff1673ffffffffffffffffffffffffffffffffffffffff1681526020019081526020015f20546106d59190610cc3565b6106df9190610cf6565b6106e99190610d64565b6106f39190610c18565b9050610920565b621e848060015f8573ffffffffffffffffffffffffffffffffffffffff1673ffffffffffffffffffffffffffffffffffffffff1681526020019081526020015f20541180156107895750627a120060015f8573ffffffffffffffffffffffffffffffffffffffff1673ffffffffffffffffffffffffffffffffffffffff1681526020019081526020015f205411155b1561080757620624446064601e621e848060015f8873ffffffffffffffffffffffffffffffffffffffff1673ffffffffffffffffffffffffffffffffffffffff1681526020019081526020015f20546107e29190610cc3565b6107ec9190610cf6565b6107f69190610d64565b6108009190610c18565b9050610920565b627a120060015f8573ffffffffffffffffffffffffffffffffffffffff1673ffffffffffffffffffffffffffffffffffffffff1681526020019081526020015f205411156108c85762219b8460646023624c4b4060015f8873ffffffffffffffffffffffffffffffffffffffff1673ffffffffffffffffffffffffffffffffffffffff1681526020019081526020015f20546108a39190610cc3565b6108ad9190610cf6565b6108b79190610d64565b6108c19190610c18565b9050610920565b60648260015f8673ffffffffffffffffffffffffffffffffffffffff1673ffffffffffffffffffffffffffffffffffffffff1681526020019081526020015f20546109139190610cf6565b61091d9190610d64565b90505b92915050565b6002602052805f5260405f205f915090505481565b5f805f8054906101000a900473ffffffffffffffffffffffffffffffffffffffff1673ffffffffffffffffffffffffffffffffffffffff163373ffffffffffffffffffffffffffffffffffffffff16146109ca576040517f08c379a00000000000000000000000000000000000000000000000000000000081526004016109c190610dde565b60405180910390fd5b60015f8473ffffffffffffffffffffffffffffffffffffffff1673ffffffffffffffffffffffffffffffffffffffff1681526020019081526020015f205460025f8573ffffffffffffffffffffffffffffffffffffffff1673ffffffffffffffffffffffffffffffffffffffff1681526020019081526020015f205491509150915091565b5f80fd5b5f819050919050565b610a6581610a53565b8114610a6f575f80fd5b50565b5f81359050610a8081610a5c565b92915050565b5f60208284031215610a9b57610a9a610a4f565b5b5f610aa884828501610a72565b91505092915050565b5f73ffffffffffffffffffffffffffffffffffffffff82169050919050565b5f610ada82610ab1565b9050919050565b610aea81610ad0565b82525050565b5f602082019050610b035f830184610ae1565b92915050565b610b1281610ad0565b8114610b1c575f80fd5b50565b5f81359050610b2d81610b09565b92915050565b5f60208284031215610b4857610b47610a4f565b5b5f610b5584828501610b1f565b91505092915050565b610b6781610a53565b82525050565b5f602082019050610b805f830184610b5e565b92915050565b5f8060408385031215610b9c57610b9b610a4f565b5b5f610ba985828601610b1f565b9250506020610bba85828601610a72565b9150509250929050565b5f604082019050610bd75f830185610b5e565b610be46020830184610b5e565b9392505050565b7f4e487b71000000000000000000000000000000000000000000000000000000005f52601160045260245ffd5b5f610c2282610a53565b9150610c2d83610a53565b9250828201905080821115610c4557610c44610beb565b5b92915050565b5f82825260208201905092915050565b7f496e73756666696369656e7420746178207061796d656e7400000000000000005f82015250565b5f610c8f601883610c4b565b9150610c9a82610c5b565b602082019050919050565b5f6020820190508181035f830152610cbc81610c83565b9050919050565b5f610ccd82610a53565b9150610cd883610a53565b9250828203905081811115610cf057610cef610beb565b5b92915050565b5f610d0082610a53565b9150610d0b83610a53565b9250828202610d1981610a53565b91508282048414831517610d3057610d2f610beb565b5b5092915050565b7f4e487b71000000000000000000000000000000000000000000000000000000005f52601260045260245ffd5b5f610d6e82610a53565b9150610d7983610a53565b925082610d8957610d88610d37565b5b828204905092915050565b7f4e6f7420617574686f72697a65640000000000000000000000000000000000005f82015250565b5f610dc8600e83610c4b565b9150610dd382610d94565b602082019050919050565b5f6020820190508181035f830152610df581610dbc565b905091905056fea2646970667358221220fb202b4cbfc3ba9d8849858478dd2b90b1af43dd5d4c3430eafd5ecc14e0621264736f6c634300081a0033",
					"opcodes": "PUSH1 0x80 PUSH1 0x40 MSTORE CALLVALUE DUP1 ISZERO PUSH1 0xE JUMPI PUSH0 DUP1 REVERT JUMPDEST POP CALLER PUSH0 DUP1 PUSH2 0x100 EXP DUP2 SLOAD DUP2 PUSH20 0xFFFFFFFFFFFFFFFFFFFFFFFFFFFFFFFFFFFFFFFF MUL NOT AND SWAP1 DUP4 PUSH20 0xFFFFFFFFFFFFFFFFFFFFFFFFFFFFFFFFFFFFFFFF AND MUL OR SWAP1 SSTORE POP PUSH2 0xE32 DUP1 PUSH2 0x5B PUSH0 CODECOPY PUSH0 RETURN INVALID PUSH1 0x80 PUSH1 0x40 MSTORE PUSH1 0x4 CALLDATASIZE LT PUSH2 0x6F JUMPI PUSH0 CALLDATALOAD PUSH1 0xE0 SHR DUP1 PUSH4 0xA05AAF50 GT PUSH2 0x4D JUMPI DUP1 PUSH4 0xA05AAF50 EQ PUSH2 0x101 JUMPI DUP1 PUSH4 0xA28346CB EQ PUSH2 0x11D JUMPI DUP1 PUSH4 0xA988E371 EQ PUSH2 0x159 JUMPI DUP1 PUSH4 0xB0E45C04 EQ PUSH2 0x195 JUMPI PUSH2 0x6F JUMP JUMPDEST DUP1 PUSH4 0x16FD5362 EQ PUSH2 0x73 JUMPI DUP1 PUSH4 0x2672F526 EQ PUSH2 0x9B JUMPI DUP1 PUSH4 0x8EA1EACC EQ PUSH2 0xC5 JUMPI JUMPDEST PUSH0 DUP1 REVERT JUMPDEST CALLVALUE DUP1 ISZERO PUSH2 0x7E JUMPI PUSH0 DUP1 REVERT JUMPDEST POP PUSH2 0x99 PUSH1 0x4 DUP1 CALLDATASIZE SUB DUP2 ADD SWAP1 PUSH2 0x94 SWAP2 SWAP1 PUSH2 0xA86 JUMP JUMPDEST PUSH2 0x1D2 JUMP JUMPDEST STOP JUMPDEST CALLVALUE DUP1 ISZERO PUSH2 0xA6 JUMPI PUSH0 DUP1 REVERT JUMPDEST POP PUSH2 0xAF PUSH2 0x228 JUMP JUMPDEST PUSH1 0x40 MLOAD PUSH2 0xBC SWAP2 SWAP1 PUSH2 0xAF0 JUMP JUMPDEST PUSH1 0x40 MLOAD DUP1 SWAP2 SUB SWAP1 RETURN JUMPDEST CALLVALUE DUP1 ISZERO PUSH2 0xD0 JUMPI PUSH0 DUP1 REVERT JUMPDEST POP PUSH2 0xEB PUSH1 0x4 DUP1 CALLDATASIZE SUB DUP2 ADD SWAP1 PUSH2 0xE6 SWAP2 SWAP1 PUSH2 0xB33 JUMP JUMPDEST PUSH2 0x24B JUMP JUMPDEST PUSH1 0x40 MLOAD PUSH2 0xF8 SWAP2 SWAP1 PUSH2 0xB6D JUMP JUMPDEST PUSH1 0x40 MLOAD DUP1 SWAP2 SUB SWAP1 RETURN JUMPDEST PUSH2 0x11B PUSH1 0x4 DUP1 CALLDATASIZE SUB DUP2 ADD SWAP1 PUSH2 0x116 SWAP2 SWAP1 PUSH2 0xA86 JUMP JUMPDEST PUSH2 0x260 JUMP JUMPDEST STOP JUMPDEST CALLVALUE DUP1 ISZERO PUSH2 0x128 JUMPI PUSH0 DUP1 REVERT JUMPDEST POP PUSH2 0x143 PUSH1 0x4 DUP1 CALLDATASIZE SUB DUP2 ADD SWAP1 PUSH2 0x13E SWAP2 SWAP1 PUSH2 0xB86 JUMP JUMPDEST PUSH2 0x355 JUMP JUMPDEST PUSH1 0x40 MLOAD PUSH2 0x150 SWAP2 SWAP1 PUSH2 0xB6D JUMP JUMPDEST PUSH1 0x40 MLOAD DUP1 SWAP2 SUB SWAP1 RETURN JUMPDEST CALLVALUE DUP1 ISZERO PUSH2 0x164 JUMPI PUSH0 DUP1 REVERT JUMPDEST POP PUSH2 0x17F PUSH1 0x4 DUP1 CALLDATASIZE SUB DUP2 ADD SWAP1 PUSH2 0x17A SWAP2 SWAP1 PUSH2 0xB33 JUMP JUMPDEST PUSH2 0x926 JUMP JUMPDEST PUSH1 0x40 MLOAD PUSH2 0x18C SWAP2 SWAP1 PUSH2 0xB6D JUMP JUMPDEST PUSH1 0x40 MLOAD DUP1 SWAP2 SUB SWAP1 RETURN JUMPDEST CALLVALUE DUP1 ISZERO PUSH2 0x1A0 JUMPI PUSH0 DUP1 REVERT JUMPDEST POP PUSH2 0x1BB PUSH1 0x4 DUP1 CALLDATASIZE SUB DUP2 ADD SWAP1 PUSH2 0x1B6 SWAP2 SWAP1 PUSH2 0xB33 JUMP JUMPDEST PUSH2 0x93B JUMP JUMPDEST PUSH1 0x40 MLOAD PUSH2 0x1C9 SWAP3 SWAP2 SWAP1 PUSH2 0xBC4 JUMP JUMPDEST PUSH1 0x40 MLOAD DUP1 SWAP2 SUB SWAP1 RETURN JUMPDEST DUP1 PUSH1 0x1 PUSH0 CALLER PUSH20 0xFFFFFFFFFFFFFFFFFFFFFFFFFFFFFFFFFFFFFFFF AND PUSH20 0xFFFFFFFFFFFFFFFFFFFFFFFFFFFFFFFFFFFFFFFF AND DUP2 MSTORE PUSH1 0x20 ADD SWAP1 DUP2 MSTORE PUSH1 0x20 ADD PUSH0 KECCAK256 PUSH0 DUP3 DUP3 SLOAD PUSH2 0x21E SWAP2 SWAP1 PUSH2 0xC18 JUMP JUMPDEST SWAP3 POP POP DUP2 SWAP1 SSTORE POP POP JUMP JUMPDEST PUSH0 DUP1 SLOAD SWAP1 PUSH2 0x100 EXP SWAP1 DIV PUSH20 0xFFFFFFFFFFFFFFFFFFFFFFFFFFFFFFFFFFFFFFFF AND DUP2 JUMP JUMPDEST PUSH1 0x1 PUSH1 0x20 MSTORE DUP1 PUSH0 MSTORE PUSH1 0x40 PUSH0 KECCAK256 PUSH0 SWAP2 POP SWAP1 POP SLOAD DUP2 JUMP JUMPDEST PUSH0 PUSH2 0x26B CALLER DUP4 PUSH2 0x355 JUMP JUMPDEST SWAP1 POP DUP1 CALLVALUE GT ISZERO PUSH2 0x2B0 JUMPI PUSH1 0x40 MLOAD PUSH32 0x8C379A000000000000000000000000000000000000000000000000000000000 DUP2 MSTORE PUSH1 0x4 ADD PUSH2 0x2A7 SWAP1 PUSH2 0xCA5 JUMP JUMPDEST PUSH1 0x40 MLOAD DUP1 SWAP2 SUB SWAP1 REVERT JUMPDEST DUP1 PUSH1 0x2 PUSH0 CALLER PUSH20 0xFFFFFFFFFFFFFFFFFFFFFFFFFFFFFFFFFFFFFFFF AND PUSH20 0xFFFFFFFFFFFFFFFFFFFFFFFFFFFFFFFFFFFFFFFF AND DUP2 MSTORE PUSH1 0x20 ADD SWAP1 DUP2 MSTORE PUSH1 0x20 ADD PUSH0 KECCAK256 PUSH0 DUP3 DUP3 SLOAD PUSH2 0x2FC SWAP2 SWAP1 PUSH2 0xC18 JUMP JUMPDEST SWAP3 POP POP DUP2 SWAP1 SSTORE POP CALLER PUSH20 0xFFFFFFFFFFFFFFFFFFFFFFFFFFFFFFFFFFFFFFFF AND PUSH32 0x169B77A6399E6EC4A002BA8A07A8EAAF6944DACDBCB51CCB0655F4F7DEB7760A DUP3 PUSH1 0x40 MLOAD PUSH2 0x349 SWAP2 SWAP1 PUSH2 0xB6D JUMP JUMPDEST PUSH1 0x40 MLOAD DUP1 SWAP2 SUB SWAP1 LOG2 POP POP JUMP JUMPDEST PUSH0 PUSH3 0x3D090 PUSH1 0x1 PUSH0 DUP6 PUSH20 0xFFFFFFFFFFFFFFFFFFFFFFFFFFFFFFFFFFFFFFFF AND PUSH20 0xFFFFFFFFFFFFFFFFFFFFFFFFFFFFFFFFFFFFFFFF AND DUP2 MSTORE PUSH1 0x20 ADD SWAP1 DUP2 MSTORE PUSH1 0x20 ADD PUSH0 KECCAK256 SLOAD GT PUSH2 0x3E2 JUMPI PUSH1 0x1 PUSH0 DUP5 PUSH20 0xFFFFFFFFFFFFFFFFFFFFFFFFFFFFFFFFFFFFFFFF AND PUSH20 0xFFFFFFFFFFFFFFFFFFFFFFFFFFFFFFFFFFFFFFFF AND DUP2 MSTORE PUSH1 0x20 ADD SWAP1 DUP2 MSTORE PUSH1 0x20 ADD PUSH0 KECCAK256 SLOAD SWAP1 POP PUSH2 0x920 JUMP JUMPDEST PUSH3 0x3D090 PUSH1 0x1 PUSH0 DUP6 PUSH20 0xFFFFFFFFFFFFFFFFFFFFFFFFFFFFFFFFFFFFFFFF AND PUSH20 0xFFFFFFFFFFFFFFFFFFFFFFFFFFFFFFFFFFFFFFFF AND DUP2 MSTORE PUSH1 0x20 ADD SWAP1 DUP2 MSTORE PUSH1 0x20 ADD PUSH0 KECCAK256 SLOAD GT DUP1 ISZERO PUSH2 0x471 JUMPI POP PUSH3 0x61A80 PUSH1 0x1 PUSH0 DUP6 PUSH20 0xFFFFFFFFFFFFFFFFFFFFFFFFFFFFFFFFFFFFFFFF AND PUSH20 0xFFFFFFFFFFFFFFFFFFFFFFFFFFFFFFFFFFFFFFFF AND DUP2 MSTORE PUSH1 0x20 ADD SWAP1 DUP2 MSTORE PUSH1 0x20 ADD PUSH0 KECCAK256 SLOAD GT ISZERO JUMPDEST ISZERO PUSH2 0x4E1 JUMPI PUSH1 0x64 PUSH1 0xF PUSH3 0x3D090 PUSH1 0x1 PUSH0 DUP8 PUSH20 0xFFFFFFFFFFFFFFFFFFFFFFFFFFFFFFFFFFFFFFFF AND PUSH20 0xFFFFFFFFFFFFFFFFFFFFFFFFFFFFFFFFFFFFFFFF AND DUP2 MSTORE PUSH1 0x20 ADD SWAP1 DUP2 MSTORE PUSH1 0x20 ADD PUSH0 KECCAK256 SLOAD PUSH2 0x4C6 SWAP2 SWAP1 PUSH2 0xCC3 JUMP JUMPDEST PUSH2 0x4D0 SWAP2 SWAP1 PUSH2 0xCF6 JUMP JUMPDEST PUSH2 0x4DA SWAP2 SWAP1 PUSH2 0xD64 JUMP JUMPDEST SWAP1 POP PUSH2 0x920 JUMP JUMPDEST PUSH3 0x61A80 PUSH1 0x1 PUSH0 DUP6 PUSH20 0xFFFFFFFFFFFFFFFFFFFFFFFFFFFFFFFFFFFFFFFF AND PUSH20 0xFFFFFFFFFFFFFFFFFFFFFFFFFFFFFFFFFFFFFFFF AND DUP2 MSTORE PUSH1 0x20 ADD SWAP1 DUP2 MSTORE PUSH1 0x20 ADD PUSH0 KECCAK256 SLOAD GT DUP1 ISZERO PUSH2 0x570 JUMPI POP PUSH3 0xC3500 PUSH1 0x1 PUSH0 DUP6 PUSH20 0xFFFFFFFFFFFFFFFFFFFFFFFFFFFFFFFFFFFFFFFF AND PUSH20 0xFFFFFFFFFFFFFFFFFFFFFFFFFFFFFFFFFFFFFFFF AND DUP2 MSTORE PUSH1 0x20 ADD SWAP1 DUP2 MSTORE PUSH1 0x20 ADD PUSH0 KECCAK256 SLOAD GT ISZERO JUMPDEST ISZERO PUSH2 0x5ED JUMPI PUSH2 0x57E4 PUSH1 0x64 PUSH1 0x14 PUSH3 0x61A80 PUSH1 0x1 PUSH0 DUP9 PUSH20 0xFFFFFFFFFFFFFFFFFFFFFFFFFFFFFFFFFFFFFFFF AND PUSH20 0xFFFFFFFFFFFFFFFFFFFFFFFFFFFFFFFFFFFFFFFF AND DUP2 MSTORE PUSH1 0x20 ADD SWAP1 DUP2 MSTORE PUSH1 0x20 ADD PUSH0 KECCAK256 SLOAD PUSH2 0x5C8 SWAP2 SWAP1 PUSH2 0xCC3 JUMP JUMPDEST PUSH2 0x5D2 SWAP2 SWAP1 PUSH2 0xCF6 JUMP JUMPDEST PUSH2 0x5DC SWAP2 SWAP1 PUSH2 0xD64 JUMP JUMPDEST PUSH2 0x5E6 SWAP2 SWAP1 PUSH2 0xC18 JUMP JUMPDEST SWAP1 POP PUSH2 0x920 JUMP JUMPDEST PUSH3 0xC3500 PUSH1 0x1 PUSH0 DUP6 PUSH20 0xFFFFFFFFFFFFFFFFFFFFFFFFFFFFFFFFFFFFFFFF AND PUSH20 0xFFFFFFFFFFFFFFFFFFFFFFFFFFFFFFFFFFFFFFFF AND DUP2 MSTORE PUSH1 0x20 ADD SWAP1 DUP2 MSTORE PUSH1 0x20 ADD PUSH0 KECCAK256 SLOAD GT DUP1 ISZERO PUSH2 0x67C JUMPI POP PUSH3 0x1E8480 PUSH1 0x1 PUSH0 DUP6 PUSH20 0xFFFFFFFFFFFFFFFFFFFFFFFFFFFFFFFFFFFFFFFF AND PUSH20 0xFFFFFFFFFFFFFFFFFFFFFFFFFFFFFFFFFFFFFFFF AND DUP2 MSTORE PUSH1 0x20 ADD SWAP1 DUP2 MSTORE PUSH1 0x20 ADD PUSH0 KECCAK256 SLOAD GT ISZERO JUMPDEST ISZERO PUSH2 0x6FA JUMPI PUSH3 0x19064 PUSH1 0x64 PUSH1 0x19 PUSH3 0xC3500 PUSH1 0x1 PUSH0 DUP9 PUSH20 0xFFFFFFFFFFFFFFFFFFFFFFFFFFFFFFFFFFFFFFFF AND PUSH20 0xFFFFFFFFFFFFFFFFFFFFFFFFFFFFFFFFFFFFFFFF AND DUP2 MSTORE PUSH1 0x20 ADD SWAP1 DUP2 MSTORE PUSH1 0x20 ADD PUSH0 KECCAK256 SLOAD PUSH2 0x6D5 SWAP2 SWAP1 PUSH2 0xCC3 JUMP JUMPDEST PUSH2 0x6DF SWAP2 SWAP1 PUSH2 0xCF6 JUMP JUMPDEST PUSH2 0x6E9 SWAP2 SWAP1 PUSH2 0xD64 JUMP JUMPDEST PUSH2 0x6F3 SWAP2 SWAP1 PUSH2 0xC18 JUMP JUMPDEST SWAP1 POP PUSH2 0x920 JUMP JUMPDEST PUSH3 0x1E8480 PUSH1 0x1 PUSH0 DUP6 PUSH20 0xFFFFFFFFFFFFFFFFFFFFFFFFFFFFFFFFFFFFFFFF AND PUSH20 0xFFFFFFFFFFFFFFFFFFFFFFFFFFFFFFFFFFFFFFFF AND DUP2 MSTORE PUSH1 0x20 ADD SWAP1 DUP2 MSTORE PUSH1 0x20 ADD PUSH0 KECCAK256 SLOAD GT DUP1 ISZERO PUSH2 0x789 JUMPI POP PUSH3 0x7A1200 PUSH1 0x1 PUSH0 DUP6 PUSH20 0xFFFFFFFFFFFFFFFFFFFFFFFFFFFFFFFFFFFFFFFF AND PUSH20 0xFFFFFFFFFFFFFFFFFFFFFFFFFFFFFFFFFFFFFFFF AND DUP2 MSTORE PUSH1 0x20 ADD SWAP1 DUP2 MSTORE PUSH1 0x20 ADD PUSH0 KECCAK256 SLOAD GT ISZERO JUMPDEST ISZERO PUSH2 0x807 JUMPI PUSH3 0x62444 PUSH1 0x64 PUSH1 0x1E PUSH3 0x1E8480 PUSH1 0x1 PUSH0 DUP9 PUSH20 0xFFFFFFFFFFFFFFFFFFFFFFFFFFFFFFFFFFFFFFFF AND PUSH20 0xFFFFFFFFFFFFFFFFFFFFFFFFFFFFFFFFFFFFFFFF AND DUP2 MSTORE PUSH1 0x20 ADD SWAP1 DUP2 MSTORE PUSH1 0x20 ADD PUSH0 KECCAK256 SLOAD PUSH2 0x7E2 SWAP2 SWAP1 PUSH2 0xCC3 JUMP JUMPDEST PUSH2 0x7EC SWAP2 SWAP1 PUSH2 0xCF6 JUMP JUMPDEST PUSH2 0x7F6 SWAP2 SWAP1 PUSH2 0xD64 JUMP JUMPDEST PUSH2 0x800 SWAP2 SWAP1 PUSH2 0xC18 JUMP JUMPDEST SWAP1 POP PUSH2 0x920 JUMP JUMPDEST PUSH3 0x7A1200 PUSH1 0x1 PUSH0 DUP6 PUSH20 0xFFFFFFFFFFFFFFFFFFFFFFFFFFFFFFFFFFFFFFFF AND PUSH20 0xFFFFFFFFFFFFFFFFFFFFFFFFFFFFFFFFFFFFFFFF AND DUP2 MSTORE PUSH1 0x20 ADD SWAP1 DUP2 MSTORE PUSH1 0x20 ADD PUSH0 KECCAK256 SLOAD GT ISZERO PUSH2 0x8C8 JUMPI PUSH3 0x219B84 PUSH1 0x64 PUSH1 0x23 PUSH3 0x4C4B40 PUSH1 0x1 PUSH0 DUP9 PUSH20 0xFFFFFFFFFFFFFFFFFFFFFFFFFFFFFFFFFFFFFFFF AND PUSH20 0xFFFFFFFFFFFFFFFFFFFFFFFFFFFFFFFFFFFFFFFF AND DUP2 MSTORE PUSH1 0x20 ADD SWAP1 DUP2 MSTORE PUSH1 0x20 ADD PUSH0 KECCAK256 SLOAD PUSH2 0x8A3 SWAP2 SWAP1 PUSH2 0xCC3 JUMP JUMPDEST PUSH2 0x8AD SWAP2 SWAP1 PUSH2 0xCF6 JUMP JUMPDEST PUSH2 0x8B7 SWAP2 SWAP1 PUSH2 0xD64 JUMP JUMPDEST PUSH2 0x8C1 SWAP2 SWAP1 PUSH2 0xC18 JUMP JUMPDEST SWAP1 POP PUSH2 0x920 JUMP JUMPDEST PUSH1 0x64 DUP3 PUSH1 0x1 PUSH0 DUP7 PUSH20 0xFFFFFFFFFFFFFFFFFFFFFFFFFFFFFFFFFFFFFFFF AND PUSH20 0xFFFFFFFFFFFFFFFFFFFFFFFFFFFFFFFFFFFFFFFF AND DUP2 MSTORE PUSH1 0x20 ADD SWAP1 DUP2 MSTORE PUSH1 0x20 ADD PUSH0 KECCAK256 SLOAD PUSH2 0x913 SWAP2 SWAP1 PUSH2 0xCF6 JUMP JUMPDEST PUSH2 0x91D SWAP2 SWAP1 PUSH2 0xD64 JUMP JUMPDEST SWAP1 POP JUMPDEST SWAP3 SWAP2 POP POP JUMP JUMPDEST PUSH1 0x2 PUSH1 0x20 MSTORE DUP1 PUSH0 MSTORE PUSH1 0x40 PUSH0 KECCAK256 PUSH0 SWAP2 POP SWAP1 POP SLOAD DUP2 JUMP JUMPDEST PUSH0 DUP1 PUSH0 DUP1 SLOAD SWAP1 PUSH2 0x100 EXP SWAP1 DIV PUSH20 0xFFFFFFFFFFFFFFFFFFFFFFFFFFFFFFFFFFFFFFFF AND PUSH20 0xFFFFFFFFFFFFFFFFFFFFFFFFFFFFFFFFFFFFFFFF AND CALLER PUSH20 0xFFFFFFFFFFFFFFFFFFFFFFFFFFFFFFFFFFFFFFFF AND EQ PUSH2 0x9CA JUMPI PUSH1 0x40 MLOAD PUSH32 0x8C379A000000000000000000000000000000000000000000000000000000000 DUP2 MSTORE PUSH1 0x4 ADD PUSH2 0x9C1 SWAP1 PUSH2 0xDDE JUMP JUMPDEST PUSH1 0x40 MLOAD DUP1 SWAP2 SUB SWAP1 REVERT JUMPDEST PUSH1 0x1 PUSH0 DUP5 PUSH20 0xFFFFFFFFFFFFFFFFFFFFFFFFFFFFFFFFFFFFFFFF AND PUSH20 0xFFFFFFFFFFFFFFFFFFFFFFFFFFFFFFFFFFFFFFFF AND DUP2 MSTORE PUSH1 0x20 ADD SWAP1 DUP2 MSTORE PUSH1 0x20 ADD PUSH0 KECCAK256 SLOAD PUSH1 0x2 PUSH0 DUP6 PUSH20 0xFFFFFFFFFFFFFFFFFFFFFFFFFFFFFFFFFFFFFFFF AND PUSH20 0xFFFFFFFFFFFFFFFFFFFFFFFFFFFFFFFFFFFFFFFF AND DUP2 MSTORE PUSH1 0x20 ADD SWAP1 DUP2 MSTORE PUSH1 0x20 ADD PUSH0 KECCAK256 SLOAD SWAP2 POP SWAP2 POP SWAP2 POP SWAP2 JUMP JUMPDEST PUSH0 DUP1 REVERT JUMPDEST PUSH0 DUP2 SWAP1 POP SWAP2 SWAP1 POP JUMP JUMPDEST PUSH2 0xA65 DUP2 PUSH2 0xA53 JUMP JUMPDEST DUP2 EQ PUSH2 0xA6F JUMPI PUSH0 DUP1 REVERT JUMPDEST POP JUMP JUMPDEST PUSH0 DUP2 CALLDATALOAD SWAP1 POP PUSH2 0xA80 DUP2 PUSH2 0xA5C JUMP JUMPDEST SWAP3 SWAP2 POP POP JUMP JUMPDEST PUSH0 PUSH1 0x20 DUP3 DUP5 SUB SLT ISZERO PUSH2 0xA9B JUMPI PUSH2 0xA9A PUSH2 0xA4F JUMP JUMPDEST JUMPDEST PUSH0 PUSH2 0xAA8 DUP5 DUP3 DUP6 ADD PUSH2 0xA72 JUMP JUMPDEST SWAP2 POP POP SWAP3 SWAP2 POP POP JUMP JUMPDEST PUSH0 PUSH20 0xFFFFFFFFFFFFFFFFFFFFFFFFFFFFFFFFFFFFFFFF DUP3 AND SWAP1 POP SWAP2 SWAP1 POP JUMP JUMPDEST PUSH0 PUSH2 0xADA DUP3 PUSH2 0xAB1 JUMP JUMPDEST SWAP1 POP SWAP2 SWAP1 POP JUMP JUMPDEST PUSH2 0xAEA DUP2 PUSH2 0xAD0 JUMP JUMPDEST DUP3 MSTORE POP POP JUMP JUMPDEST PUSH0 PUSH1 0x20 DUP3 ADD SWAP1 POP PUSH2 0xB03 PUSH0 DUP4 ADD DUP5 PUSH2 0xAE1 JUMP JUMPDEST SWAP3 SWAP2 POP POP JUMP JUMPDEST PUSH2 0xB12 DUP2 PUSH2 0xAD0 JUMP JUMPDEST DUP2 EQ PUSH2 0xB1C JUMPI PUSH0 DUP1 REVERT JUMPDEST POP JUMP JUMPDEST PUSH0 DUP2 CALLDATALOAD SWAP1 POP PUSH2 0xB2D DUP2 PUSH2 0xB09 JUMP JUMPDEST SWAP3 SWAP2 POP POP JUMP JUMPDEST PUSH0 PUSH1 0x20 DUP3 DUP5 SUB SLT ISZERO PUSH2 0xB48 JUMPI PUSH2 0xB47 PUSH2 0xA4F JUMP JUMPDEST JUMPDEST PUSH0 PUSH2 0xB55 DUP5 DUP3 DUP6 ADD PUSH2 0xB1F JUMP JUMPDEST SWAP2 POP POP SWAP3 SWAP2 POP POP JUMP JUMPDEST PUSH2 0xB67 DUP2 PUSH2 0xA53 JUMP JUMPDEST DUP3 MSTORE POP POP JUMP JUMPDEST PUSH0 PUSH1 0x20 DUP3 ADD SWAP1 POP PUSH2 0xB80 PUSH0 DUP4 ADD DUP5 PUSH2 0xB5E JUMP JUMPDEST SWAP3 SWAP2 POP POP JUMP JUMPDEST PUSH0 DUP1 PUSH1 0x40 DUP4 DUP6 SUB SLT ISZERO PUSH2 0xB9C JUMPI PUSH2 0xB9B PUSH2 0xA4F JUMP JUMPDEST JUMPDEST PUSH0 PUSH2 0xBA9 DUP6 DUP3 DUP7 ADD PUSH2 0xB1F JUMP JUMPDEST SWAP3 POP POP PUSH1 0x20 PUSH2 0xBBA DUP6 DUP3 DUP7 ADD PUSH2 0xA72 JUMP JUMPDEST SWAP2 POP POP SWAP3 POP SWAP3 SWAP1 POP JUMP JUMPDEST PUSH0 PUSH1 0x40 DUP3 ADD SWAP1 POP PUSH2 0xBD7 PUSH0 DUP4 ADD DUP6 PUSH2 0xB5E JUMP JUMPDEST PUSH2 0xBE4 PUSH1 0x20 DUP4 ADD DUP5 PUSH2 0xB5E JUMP JUMPDEST SWAP4 SWAP3 POP POP POP JUMP JUMPDEST PUSH32 0x4E487B7100000000000000000000000000000000000000000000000000000000 PUSH0 MSTORE PUSH1 0x11 PUSH1 0x4 MSTORE PUSH1 0x24 PUSH0 REVERT JUMPDEST PUSH0 PUSH2 0xC22 DUP3 PUSH2 0xA53 JUMP JUMPDEST SWAP2 POP PUSH2 0xC2D DUP4 PUSH2 0xA53 JUMP JUMPDEST SWAP3 POP DUP3 DUP3 ADD SWAP1 POP DUP1 DUP3 GT ISZERO PUSH2 0xC45 JUMPI PUSH2 0xC44 PUSH2 0xBEB JUMP JUMPDEST JUMPDEST SWAP3 SWAP2 POP POP JUMP JUMPDEST PUSH0 DUP3 DUP3 MSTORE PUSH1 0x20 DUP3 ADD SWAP1 POP SWAP3 SWAP2 POP POP JUMP JUMPDEST PUSH32 0x496E73756666696369656E7420746178207061796D656E740000000000000000 PUSH0 DUP3 ADD MSTORE POP JUMP JUMPDEST PUSH0 PUSH2 0xC8F PUSH1 0x18 DUP4 PUSH2 0xC4B JUMP JUMPDEST SWAP2 POP PUSH2 0xC9A DUP3 PUSH2 0xC5B JUMP JUMPDEST PUSH1 0x20 DUP3 ADD SWAP1 POP SWAP2 SWAP1 POP JUMP JUMPDEST PUSH0 PUSH1 0x20 DUP3 ADD SWAP1 POP DUP2 DUP2 SUB PUSH0 DUP4 ADD MSTORE PUSH2 0xCBC DUP2 PUSH2 0xC83 JUMP JUMPDEST SWAP1 POP SWAP2 SWAP1 POP JUMP JUMPDEST PUSH0 PUSH2 0xCCD DUP3 PUSH2 0xA53 JUMP JUMPDEST SWAP2 POP PUSH2 0xCD8 DUP4 PUSH2 0xA53 JUMP JUMPDEST SWAP3 POP DUP3 DUP3 SUB SWAP1 POP DUP2 DUP2 GT ISZERO PUSH2 0xCF0 JUMPI PUSH2 0xCEF PUSH2 0xBEB JUMP JUMPDEST JUMPDEST SWAP3 SWAP2 POP POP JUMP JUMPDEST PUSH0 PUSH2 0xD00 DUP3 PUSH2 0xA53 JUMP JUMPDEST SWAP2 POP PUSH2 0xD0B DUP4 PUSH2 0xA53 JUMP JUMPDEST SWAP3 POP DUP3 DUP3 MUL PUSH2 0xD19 DUP2 PUSH2 0xA53 JUMP JUMPDEST SWAP2 POP DUP3 DUP3 DIV DUP5 EQ DUP4 ISZERO OR PUSH2 0xD30 JUMPI PUSH2 0xD2F PUSH2 0xBEB JUMP JUMPDEST JUMPDEST POP SWAP3 SWAP2 POP POP JUMP JUMPDEST PUSH32 0x4E487B7100000000000000000000000000000000000000000000000000000000 PUSH0 MSTORE PUSH1 0x12 PUSH1 0x4 MSTORE PUSH1 0x24 PUSH0 REVERT JUMPDEST PUSH0 PUSH2 0xD6E DUP3 PUSH2 0xA53 JUMP JUMPDEST SWAP2 POP PUSH2 0xD79 DUP4 PUSH2 0xA53 JUMP JUMPDEST SWAP3 POP DUP3 PUSH2 0xD89 JUMPI PUSH2 0xD88 PUSH2 0xD37 JUMP JUMPDEST JUMPDEST DUP3 DUP3 DIV SWAP1 POP SWAP3 SWAP2 POP POP JUMP JUMPDEST PUSH32 0x4E6F7420617574686F72697A6564000000000000000000000000000000000000 PUSH0 DUP3 ADD MSTORE POP JUMP JUMPDEST PUSH0 PUSH2 0xDC8 PUSH1 0xE DUP4 PUSH2 0xC4B JUMP JUMPDEST SWAP2 POP PUSH2 0xDD3 DUP3 PUSH2 0xD94 JUMP JUMPDEST PUSH1 0x20 DUP3 ADD SWAP1 POP SWAP2 SWAP1 POP JUMP JUMPDEST PUSH0 PUSH1 0x20 DUP3 ADD SWAP1 POP DUP2 DUP2 SUB PUSH0 DUP4 ADD MSTORE PUSH2 0xDF5 DUP2 PUSH2 0xDBC JUMP JUMPDEST SWAP1 POP SWAP2 SWAP1 POP JUMP INVALID LOG2 PUSH5 0x6970667358 0x22 SLT KECCAK256 0xFB KECCAK256 0x2B 0x4C 0xBF 0xC3 0xBA SWAP14 DUP9 BLOBHASH DUP6 DUP5 PUSH25 0xDD2B90B1AF43DD5D4C3430EAFD5ECC14E0621264736F6C6343 STOP ADDMOD BYTE STOP CALLER "
				},
				"gasEstimates": {
					"creation": {
						"codeDepositCost": "726800",
						"executionCost": "25023",
						"totalCost": "751823"
					},
					"external": {
						"audit_User(address)": "infinite",
						"calcTax(address,uint256)": "infinite",
						"government()": "2528",
						"income(address)": "2847",
						"payTax(uint256)": "infinite",
						"reportIncome(uint256)": "infinite",
						"taxPaid(address)": "2846"
					}
				},
				"methodIdentifiers": {
					"audit_User(address)": "b0e45c04",
					"calcTax(address,uint256)": "a28346cb",
					"government()": "2672f526",
					"income(address)": "8ea1eacc",
					"payTax(uint256)": "a05aaf50",
					"reportIncome(uint256)": "16fd5362",
					"taxPaid(address)": "a988e371"
				}
			},
			"storageLayout": {
				"storage": [
					{
						"astId": 3,
						"contract": "Tax.sol:taxCompliance",
						"label": "government",
						"offset": 0,
						"slot": "0",
						"type": "t_address"
					},
					{
						"astId": 7,
						"contract": "Tax.sol:taxCompliance",
						"label": "income",
						"offset": 0,
						"slot": "1",
						"type": "t_mapping(t_address,t_uint256)"
					},
					{
						"astId": 11,
						"contract": "Tax.sol:taxCompliance",
						"label": "taxPaid",
						"offset": 0,
						"slot": "2",
						"type": "t_mapping(t_address,t_uint256)"
					}
				],
				"types": {
					"t_address": {
						"encoding": "inplace",
						"label": "address",
						"numberOfBytes": "20"
					},
					"t_mapping(t_address,t_uint256)": {
						"encoding": "mapping",
						"key": "t_address",
						"label": "mapping(address => uint256)",
						"numberOfBytes": "32",
						"value": "t_uint256"
					},
					"t_uint256": {
						"encoding": "inplace",
						"label": "uint256",
						"numberOfBytes": "32"
					}
				}
			},
			"userdoc": {
				"kind": "user",
				"methods": {},
				"version": 1
			}
		}
	}
}